535021    2004200430AMS04/20_A  E 000000000031000000DJV2  200430           FSB  2004144ESTIMATE ACTIVE            004210111 00000144       IDR  000000000031000000       0                 2                  
535021    2004200430AMS04/20_A  E 000000000015425000DJV2  200430           FSB  2004144ESTIMATE ACTIVE            004210111 00000144       IDR  000000000015425000       0                 2                  
535021    2004200430AMS04/20_A  E 000000000000875000DJV2  200430           FSB  2004144ESTIMATE ACTIVE            004210111 00000144       IDR  000000000000875000       0                 2                  
535021    2004200430AMS04/20_A  E 000000000007000000DJV2  200430           FSB  2004144ESTIMATE ACTIVE            004210111 00000144       IDR  000000000007000000       0                 2                  
535021    2004200430AMS04/20_A  E 000000000071348000DJV2  200430           FSB  2004144ESTIMATE ACTIVE            004210111 00000144       IDR  000000000071348000       0                 2                  
535021    2004200430AMS04/20_A  E 000000000005370000DJV2  200430           FSB  2004144ESTIMATE ACTIVE            004210111 00000144       IDR  000000000005370000       0                 2                  
535021    2004200430AMS04/20_A  E 000000000003838000DJV2  200430           FSB  2004144ESTIMATE ACTIVE            004210111 00000144       IDR  000000000003838000       0                 2                  
535021    2004200430AMS04/20_A  E 000000000036678000DJV2  200430           FSB  2004144ESTIMATE ACTIVE            004210111 00000144       IDR  000000000036678000       0                 2                  
535021    2004200430AMS04/20_A  E 000000000007417000DJV2  200430           FSB  2004144ESTIMATE ACTIVE            004210111 00000144       IDR  000000000007417000       0                 2                  
535021    2004200430AMS04/20_A  E 000000000006782000DJV2  200430           FSB  2004144ESTIMATE ACTIVE            004210111 00000144       IDR  000000000006782000       0                 2                  
535021    2004200430AMS04/20_A  E 000000000061750000DJV2  200430           FSB  2004144ESTIMATE ACTIVE            004210111 00000144       IDR  000000000061750000       0                 2                  
535021    2004200430AMS04/20_A  E 000000000025000000DJV2  200430           FSB  2004144ESTIMATE ACTIVE            004210111 00000144       IDR  000000000025000000       0                 2                  
535021    2004200430AMS04/20_A  E 000000000000834000DJV2  200430           FSB  2004144ESTIMATE ACTIVE            004210111 00000144       IDR  000000000000834000       0                 2                  
535021    2004200430AMS04/20_A  E 000000000010875000DJV2  200430           FSB  2004144ESTIMATE ACTIVE            004210111 00000144       IDR  000000000010875000       0                 2                  
535021    2004200430AMS04/20_A  E 000000000055721000DJV2  200430           FSB  2004144ESTIMATE ACTIVE            004210111 00000144       IDR  000000000055721000       0                 2                  
535021    2004200430AMS04/20_A  E 000000002259550000DJV2  200430           FSB  2004144ESTIMATE ACTIVE            004210111 00000144       IDR  000000002259550000       0                 2                  
535021    2004200430AMS04/20_A  E 000000000000250000DJV2  200430           FSB  2004144ESTIMATE ACTIVE            004210111 00000144       IDR  000000000000250000       0                 2                  
535021    2004200430AMS04/20_A  E 000000000021579000DJV2  200430           FSB  2004144ESTIMATE ACTIVE            004210111 00000144       IDR  000000000021579000       0                 2                  
535021    2004200430AMS04/20_A  E 000000000017548000DJV2  200430           FSB  2004144ESTIMATE ACTIVE            004210111 00000144       IDR  000000000017548000       0                 2                  
535021    2004200430AMS04/20_A  E 000000000000800000DJV2  200430           FSB  2004144ESTIMATE ACTIVE            004210111 00000144       IDR  000000000000800000       0                 2                  
535021    2004200430AMS04/20_A  E 000000000008039000DJV2  200430           FSB  2004144ESTIMATE ACTIVE            004210111 00000144       IDR  000000000008039000       0                 2                  
535021    2004200430AMS04/20_A  E 000000000126759000DJV2  200430           FSB  2004144ESTIMATE ACTIVE            004210111 00000144       IDR  000000000126759000       0                 2                  
535021    2004200430AMS04/20_A  E 000000000002250000DJV2  200430           FSB  2004144ESTIMATE ACTIVE            004210111 00000144       IDR  000000000002250000       0                 2                  
535021    2004200430AMS04/20_A  E 000000000022167000DJV2  200430           FSB  2004144ESTIMATE ACTIVE            004210111 00000144       IDR  000000000022167000       0                 2                  
535021    2004200430AMS04/20_A  E 000000000125000000DJV2  200430           FSB  2004144ESTIMATE ACTIVE            004210111 00000144       IDR  000000000125000000       0                 2                  
535021    2004200430AMS04/20_A  E 000000000050000000DJV2  200430           FSB  2004144ESTIMATE ACTIVE            004210111 00000144       IDR  000000000050000000       0                 2                  
535021    2004200430AMS04/20_A  E 000000000000834000DJV2  200430           FSB  2004144ESTIMATE ACTIVE            004210111 00000144       IDR  000000000000834000       0                 2                  
535021    2004200430AMS04/20_A  E 000000000001250000DJV2  200430           FSB  2004144ESTIMATE ACTIVE            004210111 00000144       IDR  000000000001250000       0                 2                  
535021    2004200430AMS04/20_A  E 000000000000333000DJV2  200430           FSB  2004144ESTIMATE ACTIVE            004210111 00000144       IDR  000000000000333000       0                 2                  
535021    2004200430AMS04/20_A  E 000000000005000000DJV2  200430           FSB  2004144ESTIMATE ACTIVE            004210111 00000144       IDR  000000000005000000       0                 2                  
535021    2004200430AMS04/20_A  E 000000000075000000DJV2  200430           FSB  2004144ESTIMATE ACTIVE            004210111 00000144       IDR  000000000075000000       0                 2                  
535021    2004200430AMS04/20_A  E 000000000015000000DJV2  200430           FSB  2004144ESTIMATE ACTIVE            004210111 00000144       IDR  000000000015000000       0                 2                  
535021    2004200430AMS04/20_A  E 000000000004212000DJV2  200430           FSB  2004144ESTIMATE ACTIVE            004210111 00000144       IDR  000000000004212000       0                 2                  
535021    2004200430AMS04/20_A  E 000000000000476000DJV2  200430           FSB  2004144ESTIMATE ACTIVE            004210111 00000144       IDR  000000000000476000       0                 2                  
535021    2004200430AMS04/20_A  E 000000000050000000DJV2  200430           FSB  2004144ESTIMATE ACTIVE            004210111 00000144       IDR  000000000050000000       0                 2                  
535021    2004200430AMS04/20_A  E 000000000000458000DJV2  200430           FSB  2004144ESTIMATE ACTIVE            004210111 00000144       IDR  000000000000458000       0                 2                  
535021    2004200430AMS04/20_A  E 000000000007125000DJV2  200430           FSB  2004144ESTIMATE ACTIVE            004210111 00000144       IDR  000000000007125000       0                 2                  
535021    2004200430AMS04/20_A  E 000000000009583000DJV2  200430           FSB  2004144ESTIMATE ACTIVE            004210111 00000144       IDR  000000000009583000       0                 2                  
535021    2004200430AMS04/20_A  E 000000000000375000DJV2  200430           FSB  2004144ESTIMATE ACTIVE            004210111 00000144       IDR  000000000000375000       0                 2                  
535021    2004200430AMS04/20_A  E 000000000001875000DJV2  200430           FSB  2004144ESTIMATE ACTIVE            004210111 00000144       IDR  000000000001875000       0                 2                  
535021    2004200430AMS04/20_A  E 000000000003754000DJV2  200430           FSB  2004144ESTIMATE ACTIVE            004210111 00000144       IDR  000000000003754000       0                 2                  
535021    2004200430AMS04/20_A  E 000000000000417000DJV2  200430           FSB  2004144ESTIMATE ACTIVE            004210111 00000144       IDR  000000000000417000       0                 2                  
535021    2004200430AMS04/20_A  E 000000000007750000DJV2  200430           FSB  2004144ESTIMATE ACTIVE            004210111 00000144       IDR  000000000007750000       0                 2                  
535021    2004200430AMS04/20_A  E 000000000002500000DJV2  200430           FSB  2004144ESTIMATE ACTIVE            004210111 00000144       IDR  000000000002500000       0                 2                  
535021    2004200430AMS04/20_A  E 000000000006083000DJV2  200430           FSB  2004144ESTIMATE ACTIVE            004210111 00000144       IDR  000000000006083000       0                 2                  
535021    2004200430AMS04/20_A  E 000000000023250000DJV2  200430           FSB  2004144ESTIMATE ACTIVE            004210111 00000144       IDR  000000000023250000       0                 2                  
535021    2004200430AMS04/20_A  E 000000006770313000DJV2  200430           FSB  2004144ESTIMATE ACTIVE            004210111 00000144       IDR  000000006770313000       0                 2                  
535021    2004200430AMS04/20_A  E 000000000000379000DJV2  200430           FSB  2004144ESTIMATE ACTIVE            004210111 00000144       IDR  000000000000379000       0                 2                  
535021    2004200430AMS04/20_A  E 000000000250000000DJV2  200430           FSB  2004144ESTIMATE ACTIVE            004210111 00000144       IDR  000000000250000000       0                 2                  
535021    2004200430AMS04/20_A  E 000000000001250000DJV2  200430           FSB  2004144ESTIMATE ACTIVE            004210111 00000144       IDR  000000000001250000       0                 2                  
535021    2004200430AMS04/20_A  E 000000000006647000DJV2  200430           FSB  2004144ESTIMATE ACTIVE            004210111 00000144       IDR  000000000006647000       0                 2                  
535021    2004200430AMS04/20_A  E 000000000006423000DJV2  200430           FSB  2004144ESTIMATE ACTIVE            004210111 00000144       IDR  000000000006423000       0                 2                  
535021    2004200430AMS04/20_A  E 000000000003750000DJV2  200430           FSB  2004144ESTIMATE ACTIVE            004210111 00000144       IDR  000000000003750000       0                 2                  
535021    2004200430AMS04/20_A  E 000000000036249000DJV2  200430           FSB  2004144ESTIMATE ACTIVE            004210111 00000144       IDR  000000000036249000       0                 2                  
535021    2004200430AMS04/20_A  E 000000000000834000DJV2  200430           FSB  2004144ESTIMATE ACTIVE            004210111 00000144       IDR  000000000000834000       0                 2                  
535021    2004200430AMS04/20_A  E 000000000001246000DJV2  200430           FSB  2004144ESTIMATE ACTIVE            004210111 00000144       IDR  000000000001246000       0                 2                  
535021    2004200430AMS04/20_A  E 000000000078673000DJV2  200430           FSB  2004144ESTIMATE ACTIVE            004210111 00000144       IDR  000000000078673000       0                 2                  
535021    2004200430AMS04/20_A  E 000000000457500000DJV2  200430           FSB  2004144ESTIMATE ACTIVE            004210111 00000144       IDR  000000000457500000       0                 2                  
535021    2004200430AMS04/20_A  E 000000000001783000DJV2  200430           FSB  2004144ESTIMATE ACTIVE            004210111 00000144       IDR  000000000001783000       0                 2                  
535021    2004200430AMS04/20_A  E 000000000005833000DJV2  200430           FSB  2004144ESTIMATE ACTIVE            004210111 00000144       IDR  000000000005833000       0                 2                  
535021    2004200430AMS04/20_A  E 000000000000500000DJV2  200430           FSB  2004144ESTIMATE ACTIVE            004210111 00000144       IDR  000000000000500000       0                 2                  
535021    2004200430AMS04/20_A  E 000000000000832000DJV2  200430           FSB  2004144ESTIMATE ACTIVE            004210111 00000144       IDR  000000000000832000       0                 2                  
535021    2004200430AMS04/20_A  E 000000000001820000DJV2  200430           FSB  2004144ESTIMATE ACTIVE            004210111 00000144       IDR  000000000001820000       0                 2                  
535021    2004200430AMS04/20_A  E 000000000030626000DJV2  200430           FSB  2004144ESTIMATE ACTIVE            004210111 00000144       IDR  000000000030626000       0                 2                  
535021    2004200430AMS04/20_A  E 000000000000250000DJV2  200430           FSB  2004144ESTIMATE ACTIVE            004210111 00000144       IDR  000000000000250000       0                 2                  
535021    2004200430AMS04/20_A  E 000000000003675000DJV2  200430           FSB  2004144ESTIMATE ACTIVE            004210111 00000144       IDR  000000000003675000       0                 2                  
535021    2004200430AMS04/20_A  E 000000000003000000DJV2  200430           FSB  2004144ESTIMATE ACTIVE            004210111 00000144       IDR  000000000003000000       0                 2                  
535021    2004200430AMS04/20_A  E 000000000053368000DJV2  200430           FSB  2004144ESTIMATE ACTIVE            004210111 00000144       IDR  000000000053368000       0                 2                  
535021    2004200430AMS04/20_A  E 000000000002500000DJV2  200430           FSB  2004144ESTIMATE ACTIVE            004210111 00000144       IDR  000000000002500000       0                 2                  
535021    2004200430AMS04/20_A  E 000000000000625000DJV2  200430           FSB  2004144ESTIMATE ACTIVE            004210111 00000144       IDR  000000000000625000       0                 2                  
535021    2004200430AMS04/20_A  E 000000000002084000DJV2  200430           FSB  2004144ESTIMATE ACTIVE            004210111 00000144       IDR  000000000002084000       0                 2                  
535021    2004200430AMS04/20_A  E 000000000038485000DJV2  200430           FSB  2004144ESTIMATE ACTIVE            004210111 00000144       IDR  000000000038485000       0                 2                  
535021    2004200430AMS04/20_A  E 000000000000350000DJV2  200430           FSB  2004144ESTIMATE ACTIVE            004210111 00000144       IDR  000000000000350000       0                 2                  
535021    2004200430AMS04/20_A  E 000000000043058000DJV2  200430           FSB  2004144ESTIMATE ACTIVE            004210111 00000144       IDR  000000000043058000       0                 2                  
535021    2004200430AMS04/20_A  E 000000000008459000DJV2  200430           FSB  2004144ESTIMATE ACTIVE            004210111 00000144       IDR  000000000008459000       0                 2                  
535021    2004200430AMS04/20_A  E 000000000060933000DJV2  200430           FSB  2004144ESTIMATE ACTIVE            004210111 00000144       IDR  000000000060933000       0                 2                  
535021    2004200430AMS04/20_A  E 000000000006250000DJV2  200430           FSB  2004144ESTIMATE ACTIVE            004210111 00000144       IDR  000000000006250000       0                 2                  
535021    2004200430AMS04/20_A  E 000000000005375000DJV2  200430           FSB  2004144ESTIMATE ACTIVE            004210111 00000144       IDR  000000000005375000       0                 2                  
535021    2004200430AMS04/20_A  E 000000000005250000DJV2  200430           FSB  2004144ESTIMATE ACTIVE            004210111 00000144       IDR  000000000005250000       0                 2                  
535021    2004200430AMS04/20_A  E 000000000013667000DJV2  200430           FSB  2004144ESTIMATE ACTIVE            004210111 00000144       IDR  000000000013667000       0                 2                  
535021    2004200430AMS04/20_A  E 000000000000834000DJV2  200430           FSB  2004144ESTIMATE ACTIVE            004210111 00000144       IDR  000000000000834000       0                 2                  
535021    2004200430AMS04/20_A  E 000000000011418000DJV2  200430           FSB  2004144ESTIMATE ACTIVE            004210111 00000144       IDR  000000000011418000       0                 2                  
535021    2004200430AMS04/20_A  E 000000000019286000DJV2  200430           FSB  2004144ESTIMATE ACTIVE            004210111 00000144       IDR  000000000019286000       0                 2                  
535021    2004200430AMS04/20_A  E 000000000027708000DJV2  200430           FSB  2004144ESTIMATE ACTIVE            004210111 00000144       IDR  000000000027708000       0                 2                  
535021    2004200430AMS04/20_A  E 000000000003084000DJV2  200430           FSB  2004144ESTIMATE ACTIVE            004210111 00000144       IDR  000000000003084000       0                 2                  
535021    2004200430AMS04/20_A  E 000000000006250000DJV2  200430           FSB  2004144ESTIMATE ACTIVE            004210111 00000144       IDR  000000000006250000       0                 2                  
535021    2004200430AMS04/20_A  E 000000000001472000DJV2  200430           FSB  2004144ESTIMATE ACTIVE            004210111 00000144       IDR  000000000001472000       0                 2                  
535021    2004200430AMS04/20_A  E 000000000000417000DJV2  200430           FSB  2004144ESTIMATE ACTIVE            004210111 00000144       IDR  000000000000417000       0                 2                  
554121    2004200430AMS04/20_A  E 000000003100000000DJV2  200430           FSB  2004144ESTIMATE ACTIVE            004210111 00000144       IDR  000000003100000000       0                 2                  
554121    2004200430AMS04/20_A  E 000000004700000000DJV2  200430           FSB  2004144ESTIMATE ACTIVE            004210111 00000144       IDR  000000004700000000       0                 2                  
554121    2004200430AMS04/20_A  E 000000000150000000DJV2  200430           FSB  2004144ESTIMATE ACTIVE            004210111 00000144       IDR  000000000150000000       0                 2                  
554121    2004200430AMS04/20_A  E 000000000150000000DJV2  200430           FSB  2004144ESTIMATE ACTIVE            004210111 00000144       IDR  000000000150000000       0                 2                  
554121    2004200430AMS04/20_A  E 000000003100000000DJV2  200430           FSB  2004144ESTIMATE ACTIVE            004210111 00000144       IDR  000000003100000000       0                 2                  
554121    2004200430AMS04/20_A  E 000000000150000000DJV2  200430           FSB  2004144ESTIMATE ACTIVE            004210111 00000144       IDR  000000000150000000       0                 2                  
554121    2004200430AMS04/20_A  E 000000003100000000DJV2  200430           FSB  2004144ESTIMATE ACTIVE            004210111 00000144       IDR  000000003100000000       0                 2                  
554121    2004200430AMS04/20_A  E 000000000150000000DJV2  200430           FSB  2004144ESTIMATE ACTIVE            004210111 00000144       IDR  000000000150000000       0                 2                  
554121    2004200430AMS04/20_A  E 000000003100000000DJV2  200430           FSB  2004144ESTIMATE ACTIVE            004210111 00000144       IDR  000000003100000000       0                 2                  
554121    2004200430AMS04/20_A  E 000000000150000000DJV2  200430           FSB  2004144ESTIMATE ACTIVE            004210111 00000144       IDR  000000000150000000       0                 2                  
554121    2004200430AMS04/20_A  E 000000004700000000DJV2  200430           FSB  2004144ESTIMATE ACTIVE            004210111 00000144       IDR  000000004700000000       0                 2                  
554121    2004200430AMS04/20_A  E 000000000150000000DJV2  200430           FSB  2004144ESTIMATE ACTIVE            004210111 00000144       IDR  000000000150000000       0                 2                  
554121    2004200430AMS04/20_A  E 000000003100000000DJV2  200430           FSB  2004144ESTIMATE ACTIVE            004210111 00000144       IDR  000000003100000000       0                 2                  
554121    2004200430AMS04/20_A  E 000000000150000000DJV2  200430           FSB  2004144ESTIMATE ACTIVE            004210111 00000144       IDR  000000000150000000       0                 2                  
554121    2004200430AMS04/20_A  E 000000004700000000DJV2  200430           FSB  2004144ESTIMATE ACTIVE            004210111 00000144       IDR  000000004700000000       0                 2                  
554121    2004200430AMS04/20_A  E 000000000150000000DJV2  200430           FSB  2004144ESTIMATE ACTIVE            004210111 00000144       IDR  000000000150000000       0                 2                  
554121    2004200430AMS04/20_A  E 000000004700000000DJV2  200430           FSB  2004144ESTIMATE ACTIVE            004210111 00000144       IDR  000000004700000000       0                 2                  
554121    2004200430AMS04/20_A  E 000000000150000000DJV2  200430           FSB  2004144ESTIMATE ACTIVE            004210111 00000144       IDR  000000000150000000       0                 2                  
554121    2004200430AMS04/20_A  E 000000004700000000DJV2  200430           FSB  2004144ESTIMATE ACTIVE            004210111 00000144       IDR  000000004700000000       0                 2                  
554121    2004200430AMS04/20_A  E 000000004700000000DJV2  200430           FSB  2004144ESTIMATE ACTIVE            004210111 00000144       IDR  000000004700000000       0                 2                  
554121    2004200430AMS04/20_A  E 000000000150000000DJV2  200430           FSB  2004144ESTIMATE ACTIVE            004210111 00000144       IDR  000000000150000000       0                 2                  
554121    2004200430AMS04/20_A  E 000000000150000000DJV2  200430           FSB  2004144ESTIMATE ACTIVE            004210111 00000144       IDR  000000000150000000       0                 2                  
554121    2004200430AMS04/20_A  E 000000004700000000DJV2  200430           FSB  2004144ESTIMATE ACTIVE            004210111 00000144       IDR  000000004700000000       0                 2                  
554121    2004200430AMS04/20_A  E 000000000150000000DJV2  200430           FSB  2004144ESTIMATE ACTIVE            004210111 00000144       IDR  000000000150000000       0                 2                  
554121    2004200430AMS04/20_A  E 000000004700000000DJV2  200430           FSB  2004144ESTIMATE ACTIVE            004210111 00000144       IDR  000000004700000000       0                 2                  
554121    2004200430AMS04/20_A  E 000000000150000000DJV2  200430           FSB  2004144ESTIMATE ACTIVE            004210111 00000144       IDR  000000000150000000       0                 2                  
554121    2004200430AMS04/20_A  E 000000003100000000DJV2  200430           FSB  2004144ESTIMATE ACTIVE            004210111 00000144       IDR  000000003100000000       0                 2                  
554121    2004200430AMS04/20_A  E 000000000150000000DJV2  200430           FSB  2004144ESTIMATE ACTIVE            004210111 00000144       IDR  000000000150000000       0                 2                  
554121    2004200430AMS04/20_A  E 000000004700000000DJV2  200430           FSB  2004144ESTIMATE ACTIVE            004210111 00000144       IDR  000000004700000000       0                 2                  
554121    2004200430AMS04/20_A  E 000000000150000000DJV2  200430           FSB  2004144ESTIMATE ACTIVE            004210111 00000144       IDR  000000000150000000       0                 2                  
554121    2004200430AMS04/20_A  E 000000001860000000DJV2  200430           FSB  2004144ESTIMATE ACTIVE            004210111 00000144       IDR  000000001860000000       0                 2                  
554121    2004200430AMS04/20_A  E 000000000150000000DJV2  200430           FSB  2004144ESTIMATE ACTIVE            004210111 00000144       IDR  000000000150000000       0                 2                  
554121    2004200430AMS04/20_A  E 000000001860000000DJV2  200430           FSB  2004144ESTIMATE ACTIVE            004210111 00000144       IDR  000000001860000000       0                 2                  
554121    2004200430AMS04/20_A  E 000000001860000000DJV2  200430           FSB  2004144ESTIMATE ACTIVE            004210111 00000144       IDR  000000001860000000       0                 2                  
554121    2004200430AMS04/20_A  E 000000000150000000DJV2  200430           FSB  2004144ESTIMATE ACTIVE            004210111 00000144       IDR  000000000150000000       0                 2                  
554121    2004200430AMS04/20_A  E 000000000150000000DJV2  200430           FSB  2004144ESTIMATE ACTIVE            004210111 00000144       IDR  000000000150000000       0                 2                  
554121    2004200430AMS04/20_A  E 000000001860000000DJV2  200430           FSB  2004144ESTIMATE ACTIVE            004210111 00000144       IDR  000000001860000000       0                 2                  
554121    2004200430AMS04/20_A  E 000000000150000000DJV2  200430           FSB  2004144ESTIMATE ACTIVE            004210111 00000144       IDR  000000000150000000       0                 2                  
554121    2004200430AMS04/20_A  E 000000001860000000DJV2  200430           FSB  2004144ESTIMATE ACTIVE            004210111 00000144       IDR  000000001860000000       0                 2                  
554121    2004200430AMS04/20_A  E 000000000150000000DJV2  200430           FSB  2004144ESTIMATE ACTIVE            004210111 00000144       IDR  000000000150000000       0                 2                  
554121    2004200430AMS04/20_A  E 000000001860000000DJV2  200430           FSB  2004144ESTIMATE ACTIVE            004210111 00000144       IDR  000000001860000000       0                 2                  
554121    2004200430AMS04/20_A  E 000000003100000000DJV2  200430           FSB  2004144ESTIMATE ACTIVE            004210111 00000144       IDR  000000003100000000       0                 2                  
554121    2004200430AMS04/20_A  E 000000003100000000DJV2  200430           FSB  2004144ESTIMATE ACTIVE            004210111 00000144       IDR  000000003100000000       0                 2                  
554121    2004200430AMS04/20_A  E 000000000150000000DJV2  200430           FSB  2004144ESTIMATE ACTIVE            004210111 00000144       IDR  000000000150000000       0                 2                  
554121    2004200430AMS04/20_A  E 000000003100000000DJV2  200430           FSB  2004144ESTIMATE ACTIVE            004210111 00000144       IDR  000000003100000000       0                 2                  
554121    2004200430AMS04/20_A  E 000000000150000000DJV2  200430           FSB  2004144ESTIMATE ACTIVE            004210111 00000144       IDR  000000000150000000       0                 2                  
554121    2004200430AMS04/20_A  E 000000000150000000DJV2  200430           FSB  2004144ESTIMATE ACTIVE            004210111 00000144       IDR  000000000150000000       0                 2                  
554121    2004200430AMS04/20_A  E 000000003100000000DJV2  200430           FSB  2004144ESTIMATE ACTIVE            004210111 00000144       IDR  000000003100000000       0                 2                  
554121    2004200430AMS04/20_A  E 000000000150000000DJV2  200430           FSB  2004144ESTIMATE ACTIVE            004210111 00000144       IDR  000000000150000000       0                 2                  
554121    2004200430AMS04/20_A  E 000000006000000000DJV2  200430           FSB  2004144ESTIMATE ACTIVE            004210111 00000144       IDR  000000006000000000       0                 2                  
554121    2004200430AMS04/20_A  E 000000000150000000DJV2  200430           FSB  2004144ESTIMATE ACTIVE            004210111 00000144       IDR  000000000150000000       0                 2                  
554121    2004200430AMS04/20_A  E 000000003100000000DJV2  200430           FSB  2004144ESTIMATE ACTIVE            004210111 00000144       IDR  000000003100000000       0                 2                  
554121    2004200430AMS04/20_A  E 000000000150000000DJV2  200430           FSB  2004144ESTIMATE ACTIVE            004210111 00000144       IDR  000000000150000000       0                 2                  
554121    2004200430AMS04/20_A  E 000000003100000000DJV2  200430           FSB  2004144ESTIMATE ACTIVE            004210111 00000144       IDR  000000003100000000       0                 2                  
554121    2004200430AMS04/20_A  E 000000000150000000DJV2  200430           FSB  2004144ESTIMATE ACTIVE            004210111 00000144       IDR  000000000150000000       0                 2                  
554121    2004200430AMS04/20_A  E 000000003100000000DJV2  200430           FSB  2004144ESTIMATE ACTIVE            004210111 00000144       IDR  000000003100000000       0                 2                  
554121    2004200430AMS04/20_A  E 000000003100000000DJV2  200430           FSB  2004144ESTIMATE ACTIVE            004210111 00000144       IDR  000000003100000000       0                 2                  
554121    2004200430AMS04/20_A  E 000000000150000000DJV2  200430           FSB  2004144ESTIMATE ACTIVE            004210111 00000144       IDR  000000000150000000       0                 2                  
554121    2004200430AMS04/20_A  E 000000000150000000DJV2  200430           FSB  2004144ESTIMATE ACTIVE            004210111 00000144       IDR  000000000150000000       0                 2                  
554121    2004200430AMS04/20_A  E 000000006000000000DJV2  200430           FSB  2004144ESTIMATE ACTIVE            004210111 00000144       IDR  000000006000000000       0                 2                  
554121    2004200430AMS04/20_A  E 000000000150000000DJV2  200430           FSB  2004144ESTIMATE ACTIVE            004210111 00000144       IDR  000000000150000000       0                 2                  
554121    2004200430AMS04/20_A  E 000000003100000000DJV2  200430           FSB  2004144ESTIMATE ACTIVE            004210111 00000144       IDR  000000003100000000       0                 2                  
554121    2004200430AMS04/20_A  E 000000000150000000DJV2  200430           FSB  2004144ESTIMATE ACTIVE            004210111 00000144       IDR  000000000150000000       0                 2                  
554121    2004200430AMS04/20_A  E 000000004700000000DJV2  200430           FSB  2004144ESTIMATE ACTIVE            004210111 00000144       IDR  000000004700000000       0                 2                  
554121    2004200430AMS04/20_A  E 000000000150000000DJV2  200430           FSB  2004144ESTIMATE ACTIVE            004210111 00000144       IDR  000000000150000000       0                 2                  
554121    2004200430AMS04/20_A  E 000000004700000000DJV2  200430           FSB  2004144ESTIMATE ACTIVE            004210111 00000144       IDR  000000004700000000       0                 2                  
554121    2004200430AMS04/20_A  E 000000000150000000DJV2  200430           FSB  2004144ESTIMATE ACTIVE            004210111 00000144       IDR  000000000150000000       0                 2                  
554121    2004200430AMS04/20_A  E 000000004700000000DJV2  200430           FSB  2004144ESTIMATE ACTIVE            004210111 00000144       IDR  000000004700000000       0                 2                  
554121    2004200430AMS04/20_A  E 000000000150000000DJV2  200430           FSB  2004144ESTIMATE ACTIVE            004210111 00000144       IDR  000000000150000000       0                 2                  
554121    2004200430AMS04/20_A  E 000000003100000000DJV2  200430           FSB  2004144ESTIMATE ACTIVE            004210111 00000144       IDR  000000003100000000       0                 2                  
554121    2004200430AMS04/20_A  E 000000000150000000DJV2  200430           FSB  2004144ESTIMATE ACTIVE            004210111 00000144       IDR  000000000150000000       0                 2                  
554121    2004200430AMS04/20_A  E 000000004700000000DJV2  200430           FSB  2004144ESTIMATE ACTIVE            004210111 00000144       IDR  000000004700000000       0                 2                  
554121    2004200430AMS04/20_A  E 000000000150000000DJV2  200430           FSB  2004144ESTIMATE ACTIVE            004210111 00000144       IDR  000000000150000000       0                 2                  
554121    2004200430AMS04/20_A  E 000000004700000000DJV2  200430           FSB  2004144ESTIMATE ACTIVE            004210111 00000144       IDR  000000004700000000       0                 2                  
554121    2004200430AMS04/20_A  E 000000003100000000DJV2  200430           FSB  2004144ESTIMATE ACTIVE            004210111 00000144       IDR  000000003100000000       0                 2                  
554121    2004200430AMS04/20_A  E 000000000150000000DJV2  200430           FSB  2004144ESTIMATE ACTIVE            004210111 00000144       IDR  000000000150000000       0                 2                  
554121    2004200430AMS04/20_A  E 000000000150000000DJV2  200430           FSB  2004144ESTIMATE ACTIVE            004210111 00000144       IDR  000000000150000000       0                 2                  
554121    2004200430AMS04/20_A  E 000000003100000000DJV2  200430           FSB  2004144ESTIMATE ACTIVE            004210111 00000144       IDR  000000003100000000       0                 2                  
554121    2004200430AMS04/20_A  E 000000004700000000DJV2  200430           FSB  2004144ESTIMATE ACTIVE            004210111 00000144       IDR  000000004700000000       0                 2                  
554121    2004200430AMS04/20_A  E 000000000150000000DJV2  200430           FSB  2004144ESTIMATE ACTIVE            004210111 00000144       IDR  000000000150000000       0                 2                  
554121    2004200430AMS04/20_A  E 000000000150000000DJV2  200430           FSB  2004144ESTIMATE ACTIVE            004210111 00000144       IDR  000000000150000000       0                 2                  
554121    2004200430AMS04/20_A  E 000000004700000000DJV2  200430           FSB  2004144ESTIMATE ACTIVE            004210111 00000144       IDR  000000004700000000       0                 2                  
554121    2004200430AMS04/20_A  E 000000000150000000DJV2  200430           FSB  2004144ESTIMATE ACTIVE            004210111 00000144       IDR  000000000150000000       0                 2                  
554121    2004200430AMS04/20_A  E 000000004700000000DJV2  200430           FSB  2004144ESTIMATE ACTIVE            004210111 00000144       IDR  000000004700000000       0                 2                  
554121    2004200430AMS04/20_A  E 000000000150000000DJV2  200430           FSB  2004144ESTIMATE ACTIVE            004210111 00000144       IDR  000000000150000000       0                 2                  
554121    2004200430AMS04/20_A  E 000000004700000000DJV2  200430           FSB  2004144ESTIMATE ACTIVE            004210111 00000144       IDR  000000004700000000       0                 2                  
554121    2004200430AMS04/20_A  E 000000000150000000DJV2  200430           FSB  2004144ESTIMATE ACTIVE            004210111 00000144       IDR  000000000150000000       0                 2                  
554121    2004200430AMS04/20_A  E 000000004700000000DJV2  200430           FSB  2004144ESTIMATE ACTIVE            004210111 00000144       IDR  000000004700000000       0                 2                  
554121    2004200430AMS04/20_A  E 000000000150000000DJV2  200430           FSB  2004144ESTIMATE ACTIVE            004210111 00000144       IDR  000000000150000000       0                 2                  
554121    2004200430AMS04/20_A  E 000000004700000000DJV2  200430           FSB  2004144ESTIMATE ACTIVE            004210111 00000144       IDR  000000004700000000       0                 2                  
554121    2004200430AMS04/20_A  E 000000000150000000DJV2  200430           FSB  2004144ESTIMATE ACTIVE            004210111 00000144       IDR  000000000150000000       0                 2                  
554121    2004200430AMS04/20_A  E 000000004700000000DJV2  200430           FSB  2004144ESTIMATE ACTIVE            004210111 00000144       IDR  000000004700000000       0                 2                  
554121    2004200430AMS04/20_A  E 000000000150000000DJV2  200430           FSB  2004144ESTIMATE ACTIVE            004210111 00000144       IDR  000000000150000000       0                 2                  
554121    2004200430AMS04/20_A  E 000000003100000000DJV2  200430           FSB  2004144ESTIMATE ACTIVE            004210111 00000144       IDR  000000003100000000       0                 2                  
554121    2004200430AMS04/20_A  E 000000003100000000DJV2  200430           FSB  2004144ESTIMATE ACTIVE            004210111 00000144       IDR  000000003100000000       0                 2                  
554121    2004200430AMS04/20_A  E 000000000150000000DJV2  200430           FSB  2004144ESTIMATE ACTIVE            004210111 00000144       IDR  000000000150000000       0                 2                  
554121    2004200430AMS04/20_A  E 000000000150000000DJV2  200430           FSB  2004144ESTIMATE ACTIVE            004210111 00000144       IDR  000000000150000000       0                 2                  
554121    2004200430AMS04/20_A  E 000000003100000000DJV2  200430           FSB  2004144ESTIMATE ACTIVE            004210111 00000144       IDR  000000003100000000       0                 2                  
554121    2004200430AMS04/20_A  E 000000000150000000DJV2  200430           FSB  2004144ESTIMATE ACTIVE            004210111 00000144       IDR  000000000150000000       0                 2                  
554121    2004200430AMS04/20_A  E 000000000150000000DJV2  200430           FSB  2004144ESTIMATE ACTIVE            004210111 00000144       IDR  000000000150000000       0                 2                  
554121    2004200430AMS04/20_A  E 000000003100000000DJV2  200430           FSB  2004144ESTIMATE ACTIVE            004210111 00000144       IDR  000000003100000000       0                 2                  
554121    2004200430AMS04/20_A  E 000000000150000000DJV2  200430           FSB  2004144ESTIMATE ACTIVE            004210111 00000144       IDR  000000000150000000       0                 2                  
554121    2004200430AMS04/20_A  E 000000003100000000DJV2  200430           FSB  2004144ESTIMATE ACTIVE            004210111 00000144       IDR  000000003100000000       0                 2                  
554121    2004200430AMS04/20_A  E 000000003100000000DJV2  200430           FSB  2004144ESTIMATE ACTIVE            004210111 00000144       IDR  000000003100000000       0                 2                  
554121    2004200430AMS04/20_A  E 000000000150000000DJV2  200430           FSB  2004144ESTIMATE ACTIVE            004210111 00000144       IDR  000000000150000000       0                 2                  
554121    2004200430AMS04/20_A  E 000000003100000000DJV2  200430           FSB  2004144ESTIMATE ACTIVE            004210111 00000144       IDR  000000003100000000       0                 2                  
554121    2004200430AMS04/20_A  E 000000000150000000DJV2  200430           FSB  2004144ESTIMATE ACTIVE            004210111 00000144       IDR  000000000150000000       0                 2                  
554121    2004200430AMS04/20_A  E 000000000150000000DJV2  200430           FSB  2004144ESTIMATE ACTIVE            004210111 00000144       IDR  000000000150000000       0                 2                  
554121    2004200430AMS04/20_A  E 000000003100000000DJV2  200430           FSB  2004144ESTIMATE ACTIVE            004210111 00000144       IDR  000000003100000000       0                 2                  
554121    2004200430AMS04/20_A  E 000000000150000000DJV2  200430           FSB  2004144ESTIMATE ACTIVE            004210111 00000144       IDR  000000000150000000       0                 2                  
554121    2004200430AMS04/20_A  E 000000003100000000DJV2  200430           FSB  2004144ESTIMATE ACTIVE            004210111 00000144       IDR  000000003100000000       0                 2                  
554121    2004200430AMS04/20_A  E 000000000150000000DJV2  200430           FSB  2004144ESTIMATE ACTIVE            004210111 00000144       IDR  000000000150000000       0                 2                  
554121    2004200430AMS04/20_A  E 000000003100000000DJV2  200430           FSB  2004144ESTIMATE ACTIVE            004210111 00000144       IDR  000000003100000000       0                 2                  
554121    2004200430AMS04/20_A  E 000000003100000000DJV2  200430           FSB  2004144ESTIMATE ACTIVE            004210111 00000144       IDR  000000003100000000       0                 2                  
554121    2004200430AMS04/20_A  E 000000000150000000DJV2  200430           FSB  2004144ESTIMATE ACTIVE            004210111 00000144       IDR  000000000150000000       0                 2                  
554121    2004200430AMS04/20_A  E 000000000150000000DJV2  200430           FSB  2004144ESTIMATE ACTIVE            004210111 00000144       IDR  000000000150000000       0                 2                  
554121    2004200430AMS04/20_A  E 000000003100000000DJV2  200430           FSB  2004144ESTIMATE ACTIVE            004210111 00000144       IDR  000000003100000000       0                 2                  
554121    2004200430AMS04/20_A  E 000000000150000000DJV2  200430           FSB  2004144ESTIMATE ACTIVE            004210111 00000144       IDR  000000000150000000       0                 2                  
554121    2004200430AMS04/20_A  E 000000003100000000DJV2  200430           FSB  2004144ESTIMATE ACTIVE            004210111 00000144       IDR  000000003100000000       0                 2                  
554121    2004200430AMS04/20_A  E 000000003100000000DJV2  200430           FSB  2004144ESTIMATE ACTIVE            004210111 00000144       IDR  000000003100000000       0                 2                  
554121    2004200430AMS04/20_A  E 000000000150000000DJV2  200430           FSB  2004144ESTIMATE ACTIVE            004210111 00000144       IDR  000000000150000000       0                 2                  
554121    2004200430AMS04/20_A  E 000000000150000000DJV2  200430           FSB  2004144ESTIMATE ACTIVE            004210111 00000144       IDR  000000000150000000       0                 2                  
554121    2004200430AMS04/20_A  E 000000003100000000DJV2  200430           FSB  2004144ESTIMATE ACTIVE            004210111 00000144       IDR  000000003100000000       0                 2                  
554121    2004200430AMS04/20_A  E 000000000150000000DJV2  200430           FSB  2004144ESTIMATE ACTIVE            004210111 00000144       IDR  000000000150000000       0                 2                  
554121    2004200430AMS04/20_A  E 000000003100000000DJV2  200430           FSB  2004144ESTIMATE ACTIVE            004210111 00000144       IDR  000000003100000000       0                 2                  
554121    2004200430AMS04/20_A  E 000000003100000000DJV2  200430           FSB  2004144ESTIMATE ACTIVE            004210111 00000144       IDR  000000003100000000       0                 2                  
554121    2004200430AMS04/20_A  E 000000000150000000DJV2  200430           FSB  2004144ESTIMATE ACTIVE            004210111 00000144       IDR  000000000150000000       0                 2                  
554121    2004200430AMS04/20_A  E 000000003100000000DJV2  200430           FSB  2004144ESTIMATE ACTIVE            004210111 00000144       IDR  000000003100000000       0                 2                  
554121    2004200430AMS04/20_A  E 000000000150000000DJV2  200430           FSB  2004144ESTIMATE ACTIVE            004210111 00000144       IDR  000000000150000000       0                 2                  
554121    2004200430AMS04/20_A  E 000000000150000000DJV2  200430           FSB  2004144ESTIMATE ACTIVE            004210111 00000144       IDR  000000000150000000       0                 2                  
554121    2004200430AMS04/20_A  E 000000003100000000DJV2  200430           FSB  2004144ESTIMATE ACTIVE            004210111 00000144       IDR  000000003100000000       0                 2                  
554121    2004200430AMS04/20_A  E 000000000150000000DJV2  200430           FSB  2004144ESTIMATE ACTIVE            004210111 00000144       IDR  000000000150000000       0                 2                  
554121    2004200430AMS04/20_A  E 000000004700000000DJV2  200430           FSB  2004144ESTIMATE ACTIVE            004210111 00000144       IDR  000000004700000000       0                 2                  
554121    2004200430AMS04/20_A  E 000000000150000000DJV2  200430           FSB  2004144ESTIMATE ACTIVE            004210111 00000144       IDR  000000000150000000       0                 2                  
554121    2004200430AMS04/20_A  E 000000003100000000DJV2  200430           FSB  2004144ESTIMATE ACTIVE            004210111 00000144       IDR  000000003100000000       0                 2                  
554121    2004200430AMS04/20_A  E 000000000150000000DJV2  200430           FSB  2004144ESTIMATE ACTIVE            004210111 00000144       IDR  000000000150000000       0                 2                  
554121    2004200430AMS04/20_A  E 000000003100000000DJV2  200430           FSB  2004144ESTIMATE ACTIVE            004210111 00000144       IDR  000000003100000000       0                 2                  
554121    2004200430AMS04/20_A  E 000000000150000000DJV2  200430           FSB  2004144ESTIMATE ACTIVE            004210111 00000144       IDR  000000000150000000       0                 2                  
554121    2004200430AMS04/20_A  E 000000003100000000DJV2  200430           FSB  2004144ESTIMATE ACTIVE            004210111 00000144       IDR  000000003100000000       0                 2                  
554121    2004200430AMS04/20_A  E 000000000150000000DJV2  200430           FSB  2004144ESTIMATE ACTIVE            004210111 00000144       IDR  000000000150000000       0                 2                  
554121    2004200430AMS04/20_A  E 000000003100000000DJV2  200430           FSB  2004144ESTIMATE ACTIVE            004210111 00000144       IDR  000000003100000000       0                 2                  
554121    2004200430AMS04/20_A  E 000000000150000000DJV2  200430           FSB  2004144ESTIMATE ACTIVE            004210111 00000144       IDR  000000000150000000       0                 2                  
554121    2004200430AMS04/20_A  E 000000003100000000DJV2  200430           FSB  2004144ESTIMATE ACTIVE            004210111 00000144       IDR  000000003100000000       0                 2                  
554121    2004200430AMS04/20_A  E 000000000150000000DJV2  200430           FSB  2004144ESTIMATE ACTIVE            004210111 00000144       IDR  000000000150000000       0                 2                  
554121    2004200430AMS04/20_A  E 000000003100000000DJV2  200430           FSB  2004144ESTIMATE ACTIVE            004210111 00000144       IDR  000000003100000000       0                 2                  
554121    2004200430AMS04/20_A  E 000000000150000000DJV2  200430           FSB  2004144ESTIMATE ACTIVE            004210111 00000144       IDR  000000000150000000       0                 2                  
554121    2004200430AMS04/20_A  E 000000003100000000DJV2  200430           FSB  2004144ESTIMATE ACTIVE            004210111 00000144       IDR  000000003100000000       0                 2                  
554121    2004200430AMS04/20_A  E 000000000150000000DJV2  200430           FSB  2004144ESTIMATE ACTIVE            004210111 00000144       IDR  000000000150000000       0                 2                  
554121    2004200430AMS04/20_A  E 000000003100000000DJV2  200430           FSB  2004144ESTIMATE ACTIVE            004210111 00000144       IDR  000000003100000000       0                 2                  
554121    2004200430AMS04/20_A  E 000000000150000000DJV2  200430           FSB  2004144ESTIMATE ACTIVE            004210111 00000144       IDR  000000000150000000       0                 2                  
554121    2004200430AMS04/20_A  E 000000003100000000DJV2  200430           FSB  2004144ESTIMATE ACTIVE            004210111 00000144       IDR  000000003100000000       0                 2                  
554121    2004200430AMS04/20_A  E 000000006000000000DJV2  200430           FSB  2004144ESTIMATE ACTIVE            004210111 00000144       IDR  000000006000000000       0                 2                  
554121    2004200430AMS04/20_A  E 000000000150000000DJV2  200430           FSB  2004144ESTIMATE ACTIVE            004210111 00000144       IDR  000000000150000000       0                 2                  
554121    2004200430AMS04/20_A  E 000000000150000000DJV2  200430           FSB  2004144ESTIMATE ACTIVE            004210111 00000144       IDR  000000000150000000       0                 2                  
554121    2004200430AMS04/20_A  E 000000003100000000DJV2  200430           FSB  2004144ESTIMATE ACTIVE            004210111 00000144       IDR  000000003100000000       0                 2                  
554121    2004200430AMS04/20_A  E 000000000150000000DJV2  200430           FSB  2004144ESTIMATE ACTIVE            004210111 00000144       IDR  000000000150000000       0                 2                  
554121    2004200430AMS04/20_A  E 000000003100000000DJV2  200430           FSB  2004144ESTIMATE ACTIVE            004210111 00000144       IDR  000000003100000000       0                 2                  
554121    2004200430AMS04/20_A  E 000000000150000000DJV2  200430           FSB  2004144ESTIMATE ACTIVE            004210111 00000144       IDR  000000000150000000       0                 2                  
554121    2004200430AMS04/20_A  E 000000003100000000DJV2  200430           FSB  2004144ESTIMATE ACTIVE            004210111 00000144       IDR  000000003100000000       0                 2                  
554121    2004200430AMS04/20_A  E 000000000150000000DJV2  200430           FSB  2004144ESTIMATE ACTIVE            004210111 00000144       IDR  000000000150000000       0                 2                  
554121    2004200430AMS04/20_A  E 000000003100000000DJV2  200430           FSB  2004144ESTIMATE ACTIVE            004210111 00000144       IDR  000000003100000000       0                 2                  
554121    2004200430AMS04/20_A  E 000000003100000000DJV2  200430           FSB  2004144ESTIMATE ACTIVE            004210111 00000144       IDR  000000003100000000       0                 2                  
554121    2004200430AMS04/20_A  E 000000000150000000DJV2  200430           FSB  2004144ESTIMATE ACTIVE            004210111 00000144       IDR  000000000150000000       0                 2                  
554121    2004200430AMS04/20_A  E 000000000150000000DJV2  200430           FSB  2004144ESTIMATE ACTIVE            004210111 00000144       IDR  000000000150000000       0                 2                  
554121    2004200430AMS04/20_A  E 000000003100000000DJV2  200430           FSB  2004144ESTIMATE ACTIVE            004210111 00000144       IDR  000000003100000000       0                 2                  
554121    2004200430AMS04/20_A  E 000000000150000000DJV2  200430           FSB  2004144ESTIMATE ACTIVE            004210111 00000144       IDR  000000000150000000       0                 2                  
554121    2004200430AMS04/20_A  E 000000003100000000DJV2  200430           FSB  2004144ESTIMATE ACTIVE            004210111 00000144       IDR  000000003100000000       0                 2                  
554121    2004200430AMS04/20_A  E 000000000150000000DJV2  200430           FSB  2004144ESTIMATE ACTIVE            004210111 00000144       IDR  000000000150000000       0                 2                  
554121    2004200430AMS04/20_A  E 000000003100000000DJV2  200430           FSB  2004144ESTIMATE ACTIVE            004210111 00000144       IDR  000000003100000000       0                 2                  
554121    2004200430AMS04/20_A  E 000000000150000000DJV2  200430           FSB  2004144ESTIMATE ACTIVE            004210111 00000144       IDR  000000000150000000       0                 2                  
554121    2004200430AMS04/20_A  E 000000003100000000DJV2  200430           FSB  2004144ESTIMATE ACTIVE            004210111 00000144       IDR  000000003100000000       0                 2                  
554121    2004200430AMS04/20_A  E 000000000150000000DJV2  200430           FSB  2004144ESTIMATE ACTIVE            004210111 00000144       IDR  000000000150000000       0                 2                  
554121    2004200430AMS04/20_A  E 000000003100000000DJV2  200430           FSB  2004144ESTIMATE ACTIVE            004210111 00000144       IDR  000000003100000000       0                 2                  
554121    2004200430AMS04/20_A  E 000000000150000000DJV2  200430           FSB  2004144ESTIMATE ACTIVE            004210111 00000144       IDR  000000000150000000       0                 2                  
554121    2004200430AMS04/20_A  E 000000003100000000DJV2  200430           FSB  2004144ESTIMATE ACTIVE            004210111 00000144       IDR  000000003100000000       0                 2                  
554121    2004200430AMS04/20_A  E 000000003100000000DJV2  200430           FSB  2004144ESTIMATE ACTIVE            004210111 00000144       IDR  000000003100000000       0                 2                  
554121    2004200430AMS04/20_A  E 000000000150000000DJV2  200430           FSB  2004144ESTIMATE ACTIVE            004210111 00000144       IDR  000000000150000000       0                 2                  
554121    2004200430AMS04/20_A  E 000000003100000000DJV2  200430           FSB  2004144ESTIMATE ACTIVE            004210111 00000144       IDR  000000003100000000       0                 2                  
554121    2004200430AMS04/20_A  E 000000000150000000DJV2  200430           FSB  2004144ESTIMATE ACTIVE            004210111 00000144       IDR  000000000150000000       0                 2                  
554121    2004200430AMS04/20_A  E 000000003100000000DJV2  200430           FSB  2004144ESTIMATE ACTIVE            004210111 00000144       IDR  000000003100000000       0                 2                  
554121    2004200430AMS04/20_A  E 000000000150000000DJV2  200430           FSB  2004144ESTIMATE ACTIVE            004210111 00000144       IDR  000000000150000000       0                 2                  
554121    2004200430AMS04/20_A  E 000000003100000000DJV2  200430           FSB  2004144ESTIMATE ACTIVE            004210111 00000144       IDR  000000003100000000       0                 2                  
554121    2004200430AMS04/20_A  E 000000000150000000DJV2  200430           FSB  2004144ESTIMATE ACTIVE            004210111 00000144       IDR  000000000150000000       0                 2                  
554121    2004200430AMS04/20_A  E 000000003100000000DJV2  200430           FSB  2004144ESTIMATE ACTIVE            004210111 00000144       IDR  000000003100000000       0                 2                  
554121    2004200430AMS04/20_A  E 000000000150000000DJV2  200430           FSB  2004144ESTIMATE ACTIVE            004210111 00000144       IDR  000000000150000000       0                 2                  
554121    2004200430AMS04/20_A  E 000000000150000000DJV2  200430           FSB  2004144ESTIMATE ACTIVE            004210111 00000144       IDR  000000000150000000       0                 2                  
554121    2004200430AMS04/20_A  E 000000003100000000DJV2  200430           FSB  2004144ESTIMATE ACTIVE            004210111 00000144       IDR  000000003100000000       0                 2                  
554121    2004200430AMS04/20_A  E 000000003100000000DJV2  200430           FSB  2004144ESTIMATE ACTIVE            004210111 00000144       IDR  000000003100000000       0                 2                  
554121    2004200430AMS04/20_A  E 000000000150000000DJV2  200430           FSB  2004144ESTIMATE ACTIVE            004210111 00000144       IDR  000000000150000000       0                 2                  
554121    2004200430AMS04/20_A  E 000000003100000000DJV2  200430           FSB  2004144ESTIMATE ACTIVE            004210111 00000144       IDR  000000003100000000       0                 2                  
554121    2004200430AMS04/20_A  E 000000000150000000DJV2  200430           FSB  2004144ESTIMATE ACTIVE            004210111 00000144       IDR  000000000150000000       0                 2                  
554121    2004200430AMS04/20_A  E 000000003100000000DJV2  200430           FSB  2004144ESTIMATE ACTIVE            004210111 00000144       IDR  000000003100000000       0                 2                  
554121    2004200430AMS04/20_A  E 000000000150000000DJV2  200430           FSB  2004144ESTIMATE ACTIVE            004210111 00000144       IDR  000000000150000000       0                 2                  
554121    2004200430AMS04/20_A  E 000000000150000000DJV2  200430           FSB  2004144ESTIMATE ACTIVE            004210111 00000144       IDR  000000000150000000       0                 2                  
554121    2004200430AMS04/20_A  E 000000003100000000DJV2  200430           FSB  2004144ESTIMATE ACTIVE            004210111 00000144       IDR  000000003100000000       0                 2                  
554121    2004200430AMS04/20_A  E 000000000150000000DJV2  200430           FSB  2004144ESTIMATE ACTIVE            004210111 00000144       IDR  000000000150000000       0                 2                  
554121    2004200430AMS04/20_A  E 000000003100000000DJV2  200430           FSB  2004144ESTIMATE ACTIVE            004210111 00000144       IDR  000000003100000000       0                 2                  
554121    2004200430AMS04/20_A  E 000000000150000000DJV2  200430           FSB  2004144ESTIMATE ACTIVE            004210111 00000144       IDR  000000000150000000       0                 2                  
554121    2004200430AMS04/20_A  E 000000003100000000DJV2  200430           FSB  2004144ESTIMATE ACTIVE            004210111 00000144       IDR  000000003100000000       0                 2                  
554121    2004200430AMS04/20_A  E 000000000150000000DJV2  200430           FSB  2004144ESTIMATE ACTIVE            004210111 00000144       IDR  000000000150000000       0                 2                  
554121    2004200430AMS04/20_A  E 000000003100000000DJV2  200430           FSB  2004144ESTIMATE ACTIVE            004210111 00000144       IDR  000000003100000000       0                 2                  
554121    2004200430AMS04/20_A  E 000000000150000000DJV2  200430           FSB  2004144ESTIMATE ACTIVE            004210111 00000144       IDR  000000000150000000       0                 2                  
554121    2004200430AMS04/20_A  E 000000003100000000DJV2  200430           FSB  2004144ESTIMATE ACTIVE            004210111 00000144       IDR  000000003100000000       0                 2                  
554121    2004200430AMS04/20_A  E 000000003100000000DJV2  200430           FSB  2004144ESTIMATE ACTIVE            004210111 00000144       IDR  000000003100000000       0                 2                  
554121    2004200430AMS04/20_A  E 000000000150000000DJV2  200430           FSB  2004144ESTIMATE ACTIVE            004210111 00000144       IDR  000000000150000000       0                 2                  
554121    2004200430AMS04/20_A  E 000000000150000000DJV2  200430           FSB  2004144ESTIMATE ACTIVE            004210111 00000144       IDR  000000000150000000       0                 2                  
554121    2004200430AMS04/20_A  E 000000003100000000DJV2  200430           FSB  2004144ESTIMATE ACTIVE            004210111 00000144       IDR  000000003100000000       0                 2                  
554121    2004200430AMS04/20_A  E 000000003100000000DJV2  200430           FSB  2004144ESTIMATE ACTIVE            004210111 00000144       IDR  000000003100000000       0                 2                  
554121    2004200430AMS04/20_A  E 000000000150000000DJV2  200430           FSB  2004144ESTIMATE ACTIVE            004210111 00000144       IDR  000000000150000000       0                 2                  
554121    2004200430AMS04/20_A  E 000000003100000000DJV2  200430           FSB  2004144ESTIMATE ACTIVE            004210111 00000144       IDR  000000003100000000       0                 2                  
554121    2004200430AMS04/20_A  E 000000000150000000DJV2  200430           FSB  2004144ESTIMATE ACTIVE            004210111 00000144       IDR  000000000150000000       0                 2                  
554121    2004200430AMS04/20_A  E 000000000150000000DJV2  200430           FSB  2004144ESTIMATE ACTIVE            004210111 00000144       IDR  000000000150000000       0                 2                  
554121    2004200430AMS04/20_A  E 000000003100000000DJV2  200430           FSB  2004144ESTIMATE ACTIVE            004210111 00000144       IDR  000000003100000000       0                 2                  
554121    2004200430AMS04/20_A  E 000000003100000000DJV2  200430           FSB  2004144ESTIMATE ACTIVE            004210111 00000144       IDR  000000003100000000       0                 2                  
554121    2004200430AMS04/20_A  E 000000000150000000DJV2  200430           FSB  2004144ESTIMATE ACTIVE            004210111 00000144       IDR  000000000150000000       0                 2                  
554121    2004200430AMS04/20_A  E 000000000150000000DJV2  200430           FSB  2004144ESTIMATE ACTIVE            004210111 00000144       IDR  000000000150000000       0                 2                  
554121    2004200430AMS04/20_A  E 000000003100000000DJV2  200430           FSB  2004144ESTIMATE ACTIVE            004210111 00000144       IDR  000000003100000000       0                 2                  
554121    2004200430AMS04/20_A  E 000000000150000000DJV2  200430           FSB  2004144ESTIMATE ACTIVE            004210111 00000144       IDR  000000000150000000       0                 2                  
554121    2004200430AMS04/20_A  E 000000003100000000DJV2  200430           FSB  2004144ESTIMATE ACTIVE            004210111 00000144       IDR  000000003100000000       0                 2                  
554121    2004200430AMS04/20_A  E 000000000150000000DJV2  200430           FSB  2004144ESTIMATE ACTIVE            004210111 00000144       IDR  000000000150000000       0                 2                  
554121    2004200430AMS04/20_A  E 000000003100000000DJV2  200430           FSB  2004144ESTIMATE ACTIVE            004210111 00000144       IDR  000000003100000000       0                 2                  
554121    2004200430AMS04/20_A  E 000000003100000000DJV2  200430           FSB  2004144ESTIMATE ACTIVE            004210111 00000144       IDR  000000003100000000       0                 2                  
554121    2004200430AMS04/20_A  E 000000000150000000DJV2  200430           FSB  2004144ESTIMATE ACTIVE            004210111 00000144       IDR  000000000150000000       0                 2                  
554121    2004200430AMS04/20_A  E 000000000150000000DJV2  200430           FSB  2004144ESTIMATE ACTIVE            004210111 00000144       IDR  000000000150000000       0                 2                  
554121    2004200430AMS04/20_A  E 000000003100000000DJV2  200430           FSB  2004144ESTIMATE ACTIVE            004210111 00000144       IDR  000000003100000000       0                 2                  
554121    2004200430AMS04/20_A  E 000000000150000000DJV2  200430           FSB  2004144ESTIMATE ACTIVE            004210111 00000144       IDR  000000000150000000       0                 2                  
554121    2004200430AMS04/20_A  E 000000003100000000DJV2  200430           FSB  2004144ESTIMATE ACTIVE            004210111 00000144       IDR  000000003100000000       0                 2                  
554121    2004200430AMS04/20_A  E 000000000150000000DJV2  200430           FSB  2004144ESTIMATE ACTIVE            004210111 00000144       IDR  000000000150000000       0                 2                  
554121    2004200430AMS04/20_A  E 000000003100000000DJV2  200430           FSB  2004144ESTIMATE ACTIVE            004210111 00000144       IDR  000000003100000000       0                 2                  
554121    2004200430AMS04/20_A  E 000000003100000000DJV2  200430           FSB  2004144ESTIMATE ACTIVE            004210111 00000144       IDR  000000003100000000       0                 2                  
554121    2004200430AMS04/20_A  E 000000000150000000DJV2  200430           FSB  2004144ESTIMATE ACTIVE            004210111 00000144       IDR  000000000150000000       0                 2                  
554121    2004200430AMS04/20_A  E 000000000150000000DJV2  200430           FSB  2004144ESTIMATE ACTIVE            004210111 00000144       IDR  000000000150000000       0                 2                  
554121    2004200430AMS04/20_A  E 000000003100000000DJV2  200430           FSB  2004144ESTIMATE ACTIVE            004210111 00000144       IDR  000000003100000000       0                 2                  
554121    2004200430AMS04/20_A  E 000000003100000000DJV2  200430           FSB  2004144ESTIMATE ACTIVE            004210111 00000144       IDR  000000003100000000       0                 2                  
554121    2004200430AMS04/20_A  E 000000000150000000DJV2  200430           FSB  2004144ESTIMATE ACTIVE            004210111 00000144       IDR  000000000150000000       0                 2                  
554121    2004200430AMS04/20_A  E 000000003100000000DJV2  200430           FSB  2004144ESTIMATE ACTIVE            004210111 00000144       IDR  000000003100000000       0                 2                  
554121    2004200430AMS04/20_A  E 000000000150000000DJV2  200430           FSB  2004144ESTIMATE ACTIVE            004210111 00000144       IDR  000000000150000000       0                 2                  
554121    2004200430AMS04/20_A  E 000000003100000000DJV2  200430           FSB  2004144ESTIMATE ACTIVE            004210111 00000144       IDR  000000003100000000       0                 2                  
554121    2004200430AMS04/20_A  E 000000000150000000DJV2  200430           FSB  2004144ESTIMATE ACTIVE            004210111 00000144       IDR  000000000150000000       0                 2                  
554121    2004200430AMS04/20_A  E 000000000150000000DJV2  200430           FSB  2004144ESTIMATE ACTIVE            004210111 00000144       IDR  000000000150000000       0                 2                  
554121    2004200430AMS04/20_A  E 000000003100000000DJV2  200430           FSB  2004144ESTIMATE ACTIVE            004210111 00000144       IDR  000000003100000000       0                 2                  
554121    2004200430AMS04/20_A  E 000000003100000000DJV2  200430           FSB  2004144ESTIMATE ACTIVE            004210111 00000144       IDR  000000003100000000       0                 2                  
554121    2004200430AMS04/20_A  E 000000000150000000DJV2  200430           FSB  2004144ESTIMATE ACTIVE            004210111 00000144       IDR  000000000150000000       0                 2                  
554121    2004200430AMS04/20_A  E 000000000150000000DJV2  200430           FSB  2004144ESTIMATE ACTIVE            004210111 00000144       IDR  000000000150000000       0                 2                  
554121    2004200430AMS04/20_A  E 000000003100000000DJV2  200430           FSB  2004144ESTIMATE ACTIVE            004210111 00000144       IDR  000000003100000000       0                 2                  
554121    2004200430AMS04/20_A  E 000000000150000000DJV2  200430           FSB  2004144ESTIMATE ACTIVE            004210111 00000144       IDR  000000000150000000       0                 2                  
554121    2004200430AMS04/20_A  E 000000003100000000DJV2  200430           FSB  2004144ESTIMATE ACTIVE            004210111 00000144       IDR  000000003100000000       0                 2                  
554121    2004200430AMS04/20_A  E 000000000150000000DJV2  200430           FSB  2004144ESTIMATE ACTIVE            004210111 00000144       IDR  000000000150000000       0                 2                  
554121    2004200430AMS04/20_A  E 000000003100000000DJV2  200430           FSB  2004144ESTIMATE ACTIVE            004210111 00000144       IDR  000000003100000000       0                 2                  
554121    2004200430AMS04/20_A  E 000000000150000000DJV2  200430           FSB  2004144ESTIMATE ACTIVE            004210111 00000144       IDR  000000000150000000       0                 2                  
554121    2004200430AMS04/20_A  E 000000003100000000DJV2  200430           FSB  2004144ESTIMATE ACTIVE            004210111 00000144       IDR  000000003100000000       0                 2                  
554121    2004200430AMS04/20_A  E 000000000150000000DJV2  200430           FSB  2004144ESTIMATE ACTIVE            004210111 00000144       IDR  000000000150000000       0                 2                  
554121    2004200430AMS04/20_A  E 000000003100000000DJV2  200430           FSB  2004144ESTIMATE ACTIVE            004210111 00000144       IDR  000000003100000000       0                 2                  
554121    2004200430AMS04/20_A  E 000000000150000000DJV2  200430           FSB  2004144ESTIMATE ACTIVE            004210111 00000144       IDR  000000000150000000       0                 2                  
554121    2004200430AMS04/20_A  E 000000003100000000DJV2  200430           FSB  2004144ESTIMATE ACTIVE            004210111 00000144       IDR  000000003100000000       0                 2                  
554121    2004200430AMS04/20_A  E 000000000150000000DJV2  200430           FSB  2004144ESTIMATE ACTIVE            004210111 00000144       IDR  000000000150000000       0                 2                  
554121    2004200430AMS04/20_A  E 000000003100000000DJV2  200430           FSB  2004144ESTIMATE ACTIVE            004210111 00000144       IDR  000000003100000000       0                 2                  
554121    2004200430AMS04/20_A  E 000000000150000000DJV2  200430           FSB  2004144ESTIMATE ACTIVE            004210111 00000144       IDR  000000000150000000       0                 2                  
554121    2004200430AMS04/20_A  E 000000000150000000DJV2  200430           FSB  2004144ESTIMATE ACTIVE            004210111 00000144       IDR  000000000150000000       0                 2                  
554121    2004200430AMS04/20_A  E 000000003100000000DJV2  200430           FSB  2004144ESTIMATE ACTIVE            004210111 00000144       IDR  000000003100000000       0                 2                  
554121    2004200430AMS04/20_A  E 000000003100000000DJV2  200430           FSB  2004144ESTIMATE ACTIVE            004210111 00000144       IDR  000000003100000000       0                 2                  
554121    2004200430AMS04/20_A  E 000000000150000000DJV2  200430           FSB  2004144ESTIMATE ACTIVE            004210111 00000144       IDR  000000000150000000       0                 2                  
554121    2004200430AMS04/20_A  E 000000000150000000DJV2  200430           FSB  2004144ESTIMATE ACTIVE            004210111 00000144       IDR  000000000150000000       0                 2                  
554121    2004200430AMS04/20_A  E 000000003100000000DJV2  200430           FSB  2004144ESTIMATE ACTIVE            004210111 00000144       IDR  000000003100000000       0                 2                  
554121    2004200430AMS04/20_A  E 000000003100000000DJV2  200430           FSB  2004144ESTIMATE ACTIVE            004210111 00000144       IDR  000000003100000000       0                 2                  
554121    2004200430AMS04/20_A  E 000000000150000000DJV2  200430           FSB  2004144ESTIMATE ACTIVE            004210111 00000144       IDR  000000000150000000       0                 2                  
554121    2004200430AMS04/20_A  E 000000003100000000DJV2  200430           FSB  2004144ESTIMATE ACTIVE            004210111 00000144       IDR  000000003100000000       0                 2                  
554121    2004200430AMS04/20_A  E 000000000150000000DJV2  200430           FSB  2004144ESTIMATE ACTIVE            004210111 00000144       IDR  000000000150000000       0                 2                  
554121    2004200430AMS04/20_A  E 000000000150000000DJV2  200430           FSB  2004144ESTIMATE ACTIVE            004210111 00000144       IDR  000000000150000000       0                 2                  
554121    2004200430AMS04/20_A  E 000000003100000000DJV2  200430           FSB  2004144ESTIMATE ACTIVE            004210111 00000144       IDR  000000003100000000       0                 2                  
554121    2004200430AMS04/20_A  E 000000000150000000DJV2  200430           FSB  2004144ESTIMATE ACTIVE            004210111 00000144       IDR  000000000150000000       0                 2                  
554121    2004200430AMS04/20_A  E 000000003100000000DJV2  200430           FSB  2004144ESTIMATE ACTIVE            004210111 00000144       IDR  000000003100000000       0                 2                  
554121    2004200430AMS04/20_A  E 000000000150000000DJV2  200430           FSB  2004144ESTIMATE ACTIVE            004210111 00000144       IDR  000000000150000000       0                 2                  
554121    2004200430AMS04/20_A  E 000000003100000000DJV2  200430           FSB  2004144ESTIMATE ACTIVE            004210111 00000144       IDR  000000003100000000       0                 2                  
554121    2004200430AMS04/20_A  E 000000000150000000DJV2  200430           FSB  2004144ESTIMATE ACTIVE            004210111 00000144       IDR  000000000150000000       0                 2                  
554121    2004200430AMS04/20_A  E 000000003100000000DJV2  200430           FSB  2004144ESTIMATE ACTIVE            004210111 00000144       IDR  000000003100000000       0                 2                  
554121    2004200430AMS04/20_A  E 000000003100000000DJV2  200430           FSB  2004144ESTIMATE ACTIVE            004210111 00000144       IDR  000000003100000000       0                 2                  
554121    2004200430AMS04/20_A  E 000000000150000000DJV2  200430           FSB  2004144ESTIMATE ACTIVE            004210111 00000144       IDR  000000000150000000       0                 2                  
554121    2004200430AMS04/20_A  E 000000003100000000DJV2  200430           FSB  2004144ESTIMATE ACTIVE            004210111 00000144       IDR  000000003100000000       0                 2                  
554121    2004200430AMS04/20_A  E 000000000150000000DJV2  200430           FSB  2004144ESTIMATE ACTIVE            004210111 00000144       IDR  000000000150000000       0                 2                  
554121    2004200430AMS04/20_A  E 000000000150000000DJV2  200430           FSB  2004144ESTIMATE ACTIVE            004210111 00000144       IDR  000000000150000000       0                 2                  
554121    2004200430AMS04/20_A  E 000000003100000000DJV2  200430           FSB  2004144ESTIMATE ACTIVE            004210111 00000144       IDR  000000003100000000       0                 2                  
554121    2004200430AMS04/20_A  E 000000000150000000DJV2  200430           FSB  2004144ESTIMATE ACTIVE            004210111 00000144       IDR  000000000150000000       0                 2                  
554121    2004200430AMS04/20_A  E 000000003100000000DJV2  200430           FSB  2004144ESTIMATE ACTIVE            004210111 00000144       IDR  000000003100000000       0                 2                  
554121    2004200430AMS04/20_A  E 000000000150000000DJV2  200430           FSB  2004144ESTIMATE ACTIVE            004210111 00000144       IDR  000000000150000000       0                 2                  
554121    2004200430AMS04/20_A  E 000000003100000000DJV2  200430           FSB  2004144ESTIMATE ACTIVE            004210111 00000144       IDR  000000003100000000       0                 2                  
554121    2004200430AMS04/20_A  E 000000000150000000DJV2  200430           FSB  2004144ESTIMATE ACTIVE            004210111 00000144       IDR  000000000150000000       0                 2                  
554121    2004200430AMS04/20_A  E 000000003100000000DJV2  200430           FSB  2004144ESTIMATE ACTIVE            004210111 00000144       IDR  000000003100000000       0                 2                  
554121    2004200430AMS04/20_A  E 000000000150000000DJV2  200430           FSB  2004144ESTIMATE ACTIVE            004210111 00000144       IDR  000000000150000000       0                 2                  
554121    2004200430AMS04/20_A  E 000000003100000000DJV2  200430           FSB  2004144ESTIMATE ACTIVE            004210111 00000144       IDR  000000003100000000       0                 2                  
554121    2004200430AMS04/20_A  E 000000000150000000DJV2  200430           FSB  2004144ESTIMATE ACTIVE            004210111 00000144       IDR  000000000150000000       0                 2                  
554121    2004200430AMS04/20_A  E 000000003100000000DJV2  200430           FSB  2004144ESTIMATE ACTIVE            004210111 00000144       IDR  000000003100000000       0                 2                  
554121    2004200430AMS04/20_A  E 000000000150000000DJV2  200430           FSB  2004144ESTIMATE ACTIVE            004210111 00000144       IDR  000000000150000000       0                 2                  
554121    2004200430AMS04/20_A  E 000000003100000000DJV2  200430           FSB  2004144ESTIMATE ACTIVE            004210111 00000144       IDR  000000003100000000       0                 2                  
554121    2004200430AMS04/20_A  E 000000000150000000DJV2  200430           FSB  2004144ESTIMATE ACTIVE            004210111 00000144       IDR  000000000150000000       0                 2                  
554121    2004200430AMS04/20_A  E 000000003100000000DJV2  200430           FSB  2004144ESTIMATE ACTIVE            004210111 00000144       IDR  000000003100000000       0                 2                  
554121    2004200430AMS04/20_A  E 000000000150000000DJV2  200430           FSB  2004144ESTIMATE ACTIVE            004210111 00000144       IDR  000000000150000000       0                 2                  
554121    2004200430AMS04/20_A  E 000000003100000000DJV2  200430           FSB  2004144ESTIMATE ACTIVE            004210111 00000144       IDR  000000003100000000       0                 2                  
554121    2004200430AMS04/20_A  E 000000000150000000DJV2  200430           FSB  2004144ESTIMATE ACTIVE            004210111 00000144       IDR  000000000150000000       0                 2                  
554121    2004200430AMS04/20_A  E 000000003100000000DJV2  200430           FSB  2004144ESTIMATE ACTIVE            004210111 00000144       IDR  000000003100000000       0                 2                  
554121    2004200430AMS04/20_A  E 000000003100000000DJV2  200430           FSB  2004144ESTIMATE ACTIVE            004210111 00000144       IDR  000000003100000000       0                 2                  
554121    2004200430AMS04/20_A  E 000000000150000000DJV2  200430           FSB  2004144ESTIMATE ACTIVE            004210111 00000144       IDR  000000000150000000       0                 2                  
554121    2004200430AMS04/20_A  E 000000003100000000DJV2  200430           FSB  2004144ESTIMATE ACTIVE            004210111 00000144       IDR  000000003100000000       0                 2                  
554121    2004200430AMS04/20_A  E 000000000150000000DJV2  200430           FSB  2004144ESTIMATE ACTIVE            004210111 00000144       IDR  000000000150000000       0                 2                  
554121    2004200430AMS04/20_A  E 000000003100000000DJV2  200430           FSB  2004144ESTIMATE ACTIVE            004210111 00000144       IDR  000000003100000000       0                 2                  
554121    2004200430AMS04/20_A  E 000000000150000000DJV2  200430           FSB  2004144ESTIMATE ACTIVE            004210111 00000144       IDR  000000000150000000       0                 2                  
554121    2004200430AMS04/20_A  E 000000000150000000DJV2  200430           FSB  2004144ESTIMATE ACTIVE            004210111 00000144       IDR  000000000150000000       0                 2                  
554121    2004200430AMS04/20_A  E 000000003100000000DJV2  200430           FSB  2004144ESTIMATE ACTIVE            004210111 00000144       IDR  000000003100000000       0                 2                  
554121    2004200430AMS04/20_A  E 000000003100000000DJV2  200430           FSB  2004144ESTIMATE ACTIVE            004210111 00000144       IDR  000000003100000000       0                 2                  
554121    2004200430AMS04/20_A  E 000000000150000000DJV2  200430           FSB  2004144ESTIMATE ACTIVE            004210111 00000144       IDR  000000000150000000       0                 2                  
554121    2004200430AMS04/20_A  E 000000000150000000DJV2  200430           FSB  2004144ESTIMATE ACTIVE            004210111 00000144       IDR  000000000150000000       0                 2                  
554121    2004200430AMS04/20_A  E 000000003100000000DJV2  200430           FSB  2004144ESTIMATE ACTIVE            004210111 00000144       IDR  000000003100000000       0                 2                  
554121    2004200430AMS04/20_A  E 000000003100000000DJV2  200430           FSB  2004144ESTIMATE ACTIVE            004210111 00000144       IDR  000000003100000000       0                 2                  
554121    2004200430AMS04/20_A  E 000000003100000000DJV2  200430           FSB  2004144ESTIMATE ACTIVE            004210111 00000144       IDR  000000003100000000       0                 2                  
554121    2004200430AMS04/20_A  E 000000000150000000DJV2  200430           FSB  2004144ESTIMATE ACTIVE            004210111 00000144       IDR  000000000150000000       0                 2                  
554121    2004200430AMS04/20_A  E 000000003100000000DJV2  200430           FSB  2004144ESTIMATE ACTIVE            004210111 00000144       IDR  000000003100000000       0                 2                  
554121    2004200430AMS04/20_A  E 000000000150000000DJV2  200430           FSB  2004144ESTIMATE ACTIVE            004210111 00000144       IDR  000000000150000000       0                 2                  
554121    2004200430AMS04/20_A  E 000000003100000000DJV2  200430           FSB  2004144ESTIMATE ACTIVE            004210111 00000144       IDR  000000003100000000       0                 2                  
554121    2004200430AMS04/20_A  E 000000000150000000DJV2  200430           FSB  2004144ESTIMATE ACTIVE            004210111 00000144       IDR  000000000150000000       0                 2                  
554121    2004200430AMS04/20_A  E 000000000150000000DJV2  200430           FSB  2004144ESTIMATE ACTIVE            004210111 00000144       IDR  000000000150000000       0                 2                  
554121    2004200430AMS04/20_A  E 000000003100000000DJV2  200430           FSB  2004144ESTIMATE ACTIVE            004210111 00000144       IDR  000000003100000000       0                 2                  
554121    2004200430AMS04/20_A  E 000000000150000000DJV2  200430           FSB  2004144ESTIMATE ACTIVE            004210111 00000144       IDR  000000000150000000       0                 2                  
554121    2004200430AMS04/20_A  E 000000003100000000DJV2  200430           FSB  2004144ESTIMATE ACTIVE            004210111 00000144       IDR  000000003100000000       0                 2                  
554121    2004200430AMS04/20_A  E 000000000150000000DJV2  200430           FSB  2004144ESTIMATE ACTIVE            004210111 00000144       IDR  000000000150000000       0                 2                  
554121    2004200430AMS04/20_A  E 000000003100000000DJV2  200430           FSB  2004144ESTIMATE ACTIVE            004210111 00000144       IDR  000000003100000000       0                 2                  
554121    2004200430AMS04/20_A  E 000000003100000000DJV2  200430           FSB  2004144ESTIMATE ACTIVE            004210111 00000144       IDR  000000003100000000       0                 2                  
554121    2004200430AMS04/20_A  E 000000000150000000DJV2  200430           FSB  2004144ESTIMATE ACTIVE            004210111 00000144       IDR  000000000150000000       0                 2                  
554121    2004200430AMS04/20_A  E 000000000150000000DJV2  200430           FSB  2004144ESTIMATE ACTIVE            004210111 00000144       IDR  000000000150000000       0                 2                  
554121    2004200430AMS04/20_A  E 000000003100000000DJV2  200430           FSB  2004144ESTIMATE ACTIVE            004210111 00000144       IDR  000000003100000000       0                 2                  
554121    2004200430AMS04/20_A  E 000000000150000000DJV2  200430           FSB  2004144ESTIMATE ACTIVE            004210111 00000144       IDR  000000000150000000       0                 2                  
554121    2004200430AMS04/20_A  E 000000003100000000DJV2  200430           FSB  2004144ESTIMATE ACTIVE            004210111 00000144       IDR  000000003100000000       0                 2                  
554121    2004200430AMS04/20_A  E 000000000150000000DJV2  200430           FSB  2004144ESTIMATE ACTIVE            004210111 00000144       IDR  000000000150000000       0                 2                  
554121    2004200430AMS04/20_A  E 000000003100000000DJV2  200430           FSB  2004144ESTIMATE ACTIVE            004210111 00000144       IDR  000000003100000000       0                 2                  
554121    2004200430AMS04/20_A  E 000000003100000000DJV2  200430           FSB  2004144ESTIMATE ACTIVE            004210111 00000144       IDR  000000003100000000       0                 2                  
554121    2004200430AMS04/20_A  E 000000000150000000DJV2  200430           FSB  2004144ESTIMATE ACTIVE            004210111 00000144       IDR  000000000150000000       0                 2                  
554121    2004200430AMS04/20_A  E 000000003100000000DJV2  200430           FSB  2004144ESTIMATE ACTIVE            004210111 00000144       IDR  000000003100000000       0                 2                  
554121    2004200430AMS04/20_A  E 000000000150000000DJV2  200430           FSB  2004144ESTIMATE ACTIVE            004210111 00000144       IDR  000000000150000000       0                 2                  
554121    2004200430AMS04/20_A  E 000000000150000000DJV2  200430           FSB  2004144ESTIMATE ACTIVE            004210111 00000144       IDR  000000000150000000       0                 2                  
554121    2004200430AMS04/20_A  E 000000003100000000DJV2  200430           FSB  2004144ESTIMATE ACTIVE            004210111 00000144       IDR  000000003100000000       0                 2                  
554121    2004200430AMS04/20_A  E 000000000150000000DJV2  200430           FSB  2004144ESTIMATE ACTIVE            004210111 00000144       IDR  000000000150000000       0                 2                  
554121    2004200430AMS04/20_A  E 000000003100000000DJV2  200430           FSB  2004144ESTIMATE ACTIVE            004210111 00000144       IDR  000000003100000000       0                 2                  
554121    2004200430AMS04/20_A  E 000000003100000000DJV2  200430           FSB  2004144ESTIMATE ACTIVE            004210111 00000144       IDR  000000003100000000       0                 2                  
554121    2004200430AMS04/20_A  E 000000000150000000DJV2  200430           FSB  2004144ESTIMATE ACTIVE            004210111 00000144       IDR  000000000150000000       0                 2                  
554121    2004200430AMS04/20_A  E 000000000150000000DJV2  200430           FSB  2004144ESTIMATE ACTIVE            004210111 00000144       IDR  000000000150000000       0                 2                  
554121    2004200430AMS04/20_A  E 000000003100000000DJV2  200430           FSB  2004144ESTIMATE ACTIVE            004210111 00000144       IDR  000000003100000000       0                 2                  
554121    2004200430AMS04/20_A  E 000000000150000000DJV2  200430           FSB  2004144ESTIMATE ACTIVE            004210111 00000144       IDR  000000000150000000       0                 2                  
554121    2004200430AMS04/20_A  E 000000003100000000DJV2  200430           FSB  2004144ESTIMATE ACTIVE            004210111 00000144       IDR  000000003100000000       0                 2                  
554121    2004200430AMS04/20_A  E 000000003100000000DJV2  200430           FSB  2004144ESTIMATE ACTIVE            004210111 00000144       IDR  000000003100000000       0                 2                  
554121    2004200430AMS04/20_A  E 000000000150000000DJV2  200430           FSB  2004144ESTIMATE ACTIVE            004210111 00000144       IDR  000000000150000000       0                 2                  
554121    2004200430AMS04/20_A  E 000000003100000000DJV2  200430           FSB  2004144ESTIMATE ACTIVE            004210111 00000144       IDR  000000003100000000       0                 2                  
554121    2004200430AMS04/20_A  E 000000000150000000DJV2  200430           FSB  2004144ESTIMATE ACTIVE            004210111 00000144       IDR  000000000150000000       0                 2                  
554121    2004200430AMS04/20_A  E 000000000150000000DJV2  200430           FSB  2004144ESTIMATE ACTIVE            004210111 00000144       IDR  000000000150000000       0                 2                  
554121    2004200430AMS04/20_A  E 000000003100000000DJV2  200430           FSB  2004144ESTIMATE ACTIVE            004210111 00000144       IDR  000000003100000000       0                 2                  
554121    2004200430AMS04/20_A  E 000000000150000000DJV2  200430           FSB  2004144ESTIMATE ACTIVE            004210111 00000144       IDR  000000000150000000       0                 2                  
554121    2004200430AMS04/20_A  E 000000003100000000DJV2  200430           FSB  2004144ESTIMATE ACTIVE            004210111 00000144       IDR  000000003100000000       0                 2                  
554121    2004200430AMS04/20_A  E 000000000150000000DJV2  200430           FSB  2004144ESTIMATE ACTIVE            004210111 00000144       IDR  000000000150000000       0                 2                  
554121    2004200430AMS04/20_A  E 000000003100000000DJV2  200430           FSB  2004144ESTIMATE ACTIVE            004210111 00000144       IDR  000000003100000000       0                 2                  
554121    2004200430AMS04/20_A  E 000000000150000000DJV2  200430           FSB  2004144ESTIMATE ACTIVE            004210111 00000144       IDR  000000000150000000       0                 2                  
554121    2004200430AMS04/20_A  E 000000003100000000DJV2  200430           FSB  2004144ESTIMATE ACTIVE            004210111 00000144       IDR  000000003100000000       0                 2                  
554121    2004200430AMS04/20_A  E 000000003100000000DJV2  200430           FSB  2004144ESTIMATE ACTIVE            004210111 00000144       IDR  000000003100000000       0                 2                  
554121    2004200430AMS04/20_A  E 000000000150000000DJV2  200430           FSB  2004144ESTIMATE ACTIVE            004210111 00000144       IDR  000000000150000000       0                 2                  
554121    2004200430AMS04/20_A  E 000000003100000000DJV2  200430           FSB  2004144ESTIMATE ACTIVE            004210111 00000144       IDR  000000003100000000       0                 2                  
554121    2004200430AMS04/20_A  E 000000003100000000DJV2  200430           FSB  2004144ESTIMATE ACTIVE            004210111 00000144       IDR  000000003100000000       0                 2                  
554121    2004200430AMS04/20_A  E 000000000150000000DJV2  200430           FSB  2004144ESTIMATE ACTIVE            004210111 00000144       IDR  000000000150000000       0                 2                  
554121    2004200430AMS04/20_A  E 000000000150000000DJV2  200430           FSB  2004144ESTIMATE ACTIVE            004210111 00000144       IDR  000000000150000000       0                 2                  
554121    2004200430AMS04/20_A  E 000000003100000000DJV2  200430           FSB  2004144ESTIMATE ACTIVE            004210111 00000144       IDR  000000003100000000       0                 2                  
554121    2004200430AMS04/20_A  E 000000003100000000DJV2  200430           FSB  2004144ESTIMATE ACTIVE            004210111 00000144       IDR  000000003100000000       0                 2                  
554121    2004200430AMS04/20_A  E 000000000150000000DJV2  200430           FSB  2004144ESTIMATE ACTIVE            004210111 00000144       IDR  000000000150000000       0                 2                  
554121    2004200430AMS04/20_A  E 000000003100000000DJV2  200430           FSB  2004144ESTIMATE ACTIVE            004210111 00000144       IDR  000000003100000000       0                 2                  
554121    2004200430AMS04/20_A  E 000000000150000000DJV2  200430           FSB  2004144ESTIMATE ACTIVE            004210111 00000144       IDR  000000000150000000       0                 2                  
554121    2004200430AMS04/20_A  E 000000003100000000DJV2  200430           FSB  2004144ESTIMATE ACTIVE            004210111 00000144       IDR  000000003100000000       0                 2                  
554121    2004200430AMS04/20_A  E 000000000150000000DJV2  200430           FSB  2004144ESTIMATE ACTIVE            004210111 00000144       IDR  000000000150000000       0                 2                  
554121    2004200430AMS04/20_A  E 000000000150000000DJV2  200430           FSB  2004144ESTIMATE ACTIVE            004210111 00000144       IDR  000000000150000000       0                 2                  
554121    2004200430AMS04/20_A  E 000000003100000000DJV2  200430           FSB  2004144ESTIMATE ACTIVE            004210111 00000144       IDR  000000003100000000       0                 2                  
554121    2004200430AMS04/20_A  E 000000000150000000DJV2  200430           FSB  2004144ESTIMATE ACTIVE            004210111 00000144       IDR  000000000150000000       0                 2                  
554121    2004200430AMS04/20_A  E 000000003100000000DJV2  200430           FSB  2004144ESTIMATE ACTIVE            004210111 00000144       IDR  000000003100000000       0                 2                  
554121    2004200430AMS04/20_A  E 000000003100000000DJV2  200430           FSB  2004144ESTIMATE ACTIVE            004210111 00000144       IDR  000000003100000000       0                 2                  
554121    2004200430AMS04/20_A  E 000000000150000000DJV2  200430           FSB  2004144ESTIMATE ACTIVE            004210111 00000144       IDR  000000000150000000       0                 2                  
554121    2004200430AMS04/20_A  E 000000000150000000DJV2  200430           FSB  2004144ESTIMATE ACTIVE            004210111 00000144       IDR  000000000150000000       0                 2                  
554121    2004200430AMS04/20_A  E 000000003100000000DJV2  200430           FSB  2004144ESTIMATE ACTIVE            004210111 00000144       IDR  000000003100000000       0                 2                  
554121    2004200430AMS04/20_A  E 000000000150000000DJV2  200430           FSB  2004144ESTIMATE ACTIVE            004210111 00000144       IDR  000000000150000000       0                 2                  
554121    2004200430AMS04/20_A  E 000000003100000000DJV2  200430           FSB  2004144ESTIMATE ACTIVE            004210111 00000144       IDR  000000003100000000       0                 2                  
554121    2004200430AMS04/20_A  E 000000000150000000DJV2  200430           FSB  2004144ESTIMATE ACTIVE            004210111 00000144       IDR  000000000150000000       0                 2                  
554121    2004200430AMS04/20_A  E 000000003100000000DJV2  200430           FSB  2004144ESTIMATE ACTIVE            004210111 00000144       IDR  000000003100000000       0                 2                  
554121    2004200430AMS04/20_A  E 000000003100000000DJV2  200430           FSB  2004144ESTIMATE ACTIVE            004210111 00000144       IDR  000000003100000000       0                 2                  
554121    2004200430AMS04/20_A  E 000000000150000000DJV2  200430           FSB  2004144ESTIMATE ACTIVE            004210111 00000144       IDR  000000000150000000       0                 2                  
554121    2004200430AMS04/20_A  E 000000000150000000DJV2  200430           FSB  2004144ESTIMATE ACTIVE            004210111 00000144       IDR  000000000150000000       0                 2                  
554121    2004200430AMS04/20_A  E 000000003100000000DJV2  200430           FSB  2004144ESTIMATE ACTIVE            004210111 00000144       IDR  000000003100000000       0                 2                  
554121    2004200430AMS04/20_A  E 000000000150000000DJV2  200430           FSB  2004144ESTIMATE ACTIVE            004210111 00000144       IDR  000000000150000000       0                 2                  
554121    2004200430AMS04/20_A  E 000000003100000000DJV2  200430           FSB  2004144ESTIMATE ACTIVE            004210111 00000144       IDR  000000003100000000       0                 2                  
554121    2004200430AMS04/20_A  E 000000003100000000DJV2  200430           FSB  2004144ESTIMATE ACTIVE            004210111 00000144       IDR  000000003100000000       0                 2                  
554121    2004200430AMS04/20_A  E 000000000150000000DJV2  200430           FSB  2004144ESTIMATE ACTIVE            004210111 00000144       IDR  000000000150000000       0                 2                  
554121    2004200430AMS04/20_A  E 000000000150000000DJV2  200430           FSB  2004144ESTIMATE ACTIVE            004210111 00000144       IDR  000000000150000000       0                 2                  
554121    2004200430AMS04/20_A  E 000000003100000000DJV2  200430           FSB  2004144ESTIMATE ACTIVE            004210111 00000144       IDR  000000003100000000       0                 2                  
554121    2004200430AMS04/20_A  E 000000000150000000DJV2  200430           FSB  2004144ESTIMATE ACTIVE            004210111 00000144       IDR  000000000150000000       0                 2                  
