535021    2004200430AMS04/20_T  E 000000000002230000DJV2  200430           FSB  2004144ESTIMATE TERMINATE         004210111 00000144       IDR  000000000002230000       0                 2                  
535021    2004200430AMS04/20_T  E 000000000000250000DJV2  200430           FSB  2004144ESTIMATE TERMINATE         004210111 00000144       IDR  000000000000250000       0                 2                  
535021    2004200430AMS04/20_T  E 000000000000417000DJV2  200430           FSB  2004144ESTIMATE TERMINATE         004210111 00000144       IDR  000000000000417000       0                 2                  
554121    2004200430AMS04/20_T  E 000000000100000000DJV2  200430           FSB  2004144ESTIMATE TERMINATE         004210111 00000144       IDR  000000000100000000       0                 2                  
554121    2004200430AMS04/20_T  E 000000000310000000DJV2  200430           FSB  2004144ESTIMATE TERMINATE         004210111 00000144       IDR  000000000310000000       0                 2                  
554121    2004200430AMS04/20_T  E 000000000015000000DJV2  200430           FSB  2004144ESTIMATE TERMINATE         004210111 00000144       IDR  000000000015000000       0                 2                  
554121    2004200430AMS04/20_T  E 000000002066667000DJV2  200430           FSB  2004144ESTIMATE TERMINATE         004210111 00000144       IDR  000000002066667000       0                 2                  
554121    2004200430AMS04/20_T  E 000000000100000000DJV2  200430           FSB  2004144ESTIMATE TERMINATE         004210111 00000144       IDR  000000000100000000       0                 2                  
554121    2004200430AMS04/20_T  E 000000002066667000DJV2  200430           FSB  2004144ESTIMATE TERMINATE         004210111 00000144       IDR  000000002066667000       0                 2                  
554121    2004200430AMS04/20_T  E 000000000103333000DJV2  200430           FSB  2004144ESTIMATE TERMINATE         004210111 00000144       IDR  000000000103333000       0                 2                  
554121    2004200430AMS04/20_T  E 000000000100000000DJV2  200430           FSB  2004144ESTIMATE TERMINATE         004210111 00000144       IDR  000000000100000000       0                 2                  
554121    2004200430AMS04/20_T  E 000000002066667000DJV2  200430           FSB  2004144ESTIMATE TERMINATE         004210111 00000144       IDR  000000002066667000       0                 2                  
554121    2004200430AMS04/20_T  E 000000000005000000DJV2  200430           FSB  2004144ESTIMATE TERMINATE         004210111 00000144       IDR  000000000005000000       0                 2                  
554121    2004200430AMS04/20_T  E 000000000206667000DJV2  200430           FSB  2004144ESTIMATE TERMINATE         004210111 00000144       IDR  000000000206667000       0                 2                  
554121    2004200430AMS04/20_T  E 000000000010000000DJV2  200430           FSB  2004144ESTIMATE TERMINATE         004210111 00000144       IDR  000000000010000000       0                 2                  
554121    2004200430AMS04/20_T  E 000000000065000000DJV2  200430           FSB  2004144ESTIMATE TERMINATE         004210111 00000144       IDR  000000000065000000       0                 2                  
554121    2004200430AMS04/20_T  E 000000001343333000DJV2  200430           FSB  2004144ESTIMATE TERMINATE         004210111 00000144       IDR  000000001343333000       0                 2                  
554121    2004200430AMS04/20_T  E 000000000100000000DJV2  200430           FSB  2004144ESTIMATE TERMINATE         004210111 00000144       IDR  000000000100000000       0                 2                  
554121    2004200430AMS04/20_T  E 000000002066667000DJV2  200430           FSB  2004144ESTIMATE TERMINATE         004210111 00000144       IDR  000000002066667000       0                 2                  
554121    2004200430AMS04/20_T  E 000000000100000000DJV2  200430           FSB  2004144ESTIMATE TERMINATE         004210111 00000144       IDR  000000000100000000       0                 2                  
554121    2004200430AMS04/20_T  E 000000000100000000DJV2  200430           FSB  2004144ESTIMATE TERMINATE         004210111 00000144       IDR  000000000100000000       0                 2                  
554121    2004200430AMS04/20_T  E 000000002066667000DJV2  200430           FSB  2004144ESTIMATE TERMINATE         004210111 00000144       IDR  000000002066667000       0                 2                  
554121    2004200430AMS04/20_T  E 000000000103333000DJV2  200430           FSB  2004144ESTIMATE TERMINATE         004210111 00000144       IDR  000000000103333000       0                 2                  
554121    2004200430AMS04/20_T  E 000000000005000000DJV2  200430           FSB  2004144ESTIMATE TERMINATE         004210111 00000144       IDR  000000000005000000       0                 2                  
554121    2004200430AMS04/20_T  E 000000000005000000DJV2  200430           FSB  2004144ESTIMATE TERMINATE         004210111 00000144       IDR  000000000005000000       0                 2                  
554121    2004200430AMS04/20_T  E 000000000103333000DJV2  200430           FSB  2004144ESTIMATE TERMINATE         004210111 00000144       IDR  000000000103333000       0                 2                  
554121    2004200430AMS04/20_T  E 000000002066667000DJV2  200430           FSB  2004144ESTIMATE TERMINATE         004210111 00000144       IDR  000000002066667000       0                 2                  
554121    2004200430AMS04/20_T  E 000000000100000000DJV2  200430           FSB  2004144ESTIMATE TERMINATE         004210111 00000144       IDR  000000000100000000       0                 2                  
554121    2004200430AMS04/20_T  E 000000002066667000DJV2  200430           FSB  2004144ESTIMATE TERMINATE         004210111 00000144       IDR  000000002066667000       0                 2                  
554122    2004200430AMS04/20_T  E 000000001000000000DJV2  200430           FSB  2004144ESTIMATE TERMINATE         004210111 00000144       IDR  000000001000000000       0                 2                  
554122    2004200430AMS04/20_T  E 000000000650000000DJV2  200430           FSB  2004144ESTIMATE TERMINATE         004210111 00000144       IDR  000000000650000000       0                 2                  
554122    2004200430AMS04/20_T  E 000000001000000000DJV2  200430           FSB  2004144ESTIMATE TERMINATE         004210111 00000144       IDR  000000001000000000       0                 2                  
554122    2004200430AMS04/20_T  E 000000000116667000DJV2  200430           FSB  2004144ESTIMATE TERMINATE         004210111 00000144       IDR  000000000116667000       0                 2                  
554122    2004200430AMS04/20_T  E 000000001000000000DJV2  200430           FSB  2004144ESTIMATE TERMINATE         004210111 00000144       IDR  000000001000000000       0                 2                  
905613    2004200430AMS04/20_T  E 000000000006750000CJV2  200430           FSB  2004144ESTIMATE TERMINATE         004210000 00000144       IDR  000000000006750000       0                 2                  
905613    2004200430AMS04/20_T  E 000000000065000000CJV2  200430           FSB  2004144ESTIMATE TERMINATE         004210000 00000144       IDR  000000000065000000       0                 2                  
961050    2004200430AMS04/20_T  E 000000000100000000CJV2  200430           FSB  2004144ESTIMATE TERMINATE         004210000 55550144       IDR  000000000100000000       0                 2                  
961050    2004200430AMS04/20_T  E 000000002066667000CJV2  200430           FSB  2004144ESTIMATE TERMINATE         004210000 55550144       IDR  000000002066667000       0                 2                  
961050    2004200430AMS04/20_T  E 000000002066667000CJV2  200430           FSB  2004144ESTIMATE TERMINATE         004210000 55550144       IDR  000000002066667000       0                 2                  
961050    2004200430AMS04/20_T  E 000000000100000000CJV2  200430           FSB  2004144ESTIMATE TERMINATE         004210000 55550144       IDR  000000000100000000       0                 2                  
961050    2004200430AMS04/20_T  E 000000000002230000CJV2  200430           FSB  2004144ESTIMATE TERMINATE         004210000 55550144       IDR  000000000002230000       0                 2                  
961050    2004200430AMS04/20_T  E 000000000310000000CJV2  200430           FSB  2004144ESTIMATE TERMINATE         004210000 55550144       IDR  000000000310000000       0                 2                  
961050    2004200430AMS04/20_T  E 000000000015000000CJV2  200430           FSB  2004144ESTIMATE TERMINATE         004210000 55550144       IDR  000000000015000000       0                 2                  
961050    2004200430AMS04/20_T  E 000000000000417000CJV2  200430           FSB  2004144ESTIMATE TERMINATE         004210000 55550144       IDR  000000000000417000       0                 2                  
961050    2004200430AMS04/20_T  E 000000002066667000CJV2  200430           FSB  2004144ESTIMATE TERMINATE         004210000 55550144       IDR  000000002066667000       0                 2                  
961050    2004200430AMS04/20_T  E 000000000100000000CJV2  200430           FSB  2004144ESTIMATE TERMINATE         004210000 55550144       IDR  000000000100000000       0                 2                  
961050    2004200430AMS04/20_T  E 000000000000250000CJV2  200430           FSB  2004144ESTIMATE TERMINATE         004210000 55550144       IDR  000000000000250000       0                 2                  
961050    2004200430AMS04/20_T  E 000000002066667000CJV2  200430           FSB  2004144ESTIMATE TERMINATE         004210000 55550144       IDR  000000002066667000       0                 2                  
961050    2004200430AMS04/20_T  E 000000000100000000CJV2  200430           FSB  2004144ESTIMATE TERMINATE         004210000 55550144       IDR  000000000100000000       0                 2                  
961050    2004200430AMS04/20_T  E 000000001000000000CJV2  200430           FSB  2004144ESTIMATE TERMINATE         004210000 55550144       IDR  000000001000000000       0                 2                  
961050    2004200430AMS04/20_T  E 000000000100000000CJV2  200430           FSB  2004144ESTIMATE TERMINATE         004210000 55550144       IDR  000000000100000000       0                 2                  
961050    2004200430AMS04/20_T  E 000000002066667000CJV2  200430           FSB  2004144ESTIMATE TERMINATE         004210000 55550144       IDR  000000002066667000       0                 2                  
961050    2004200430AMS04/20_T  E 000000000103333000CJV2  200430           FSB  2004144ESTIMATE TERMINATE         004210000 55550144       IDR  000000000103333000       0                 2                  
961050    2004200430AMS04/20_T  E 000000000005000000CJV2  200430           FSB  2004144ESTIMATE TERMINATE         004210000 55550144       IDR  000000000005000000       0                 2                  
961050    2004200430AMS04/20_T  E 000000000116667000CJV2  200430           FSB  2004144ESTIMATE TERMINATE         004210000 55550144       IDR  000000000116667000       0                 2                  
961050    2004200430AMS04/20_T  E 000000000005000000CJV2  200430           FSB  2004144ESTIMATE TERMINATE         004210000 55550144       IDR  000000000005000000       0                 2                  
961050    2004200430AMS04/20_T  E 000000000103333000CJV2  200430           FSB  2004144ESTIMATE TERMINATE         004210000 55550144       IDR  000000000103333000       0                 2                  
961050    2004200430AMS04/20_T  E 000000002066667000CJV2  200430           FSB  2004144ESTIMATE TERMINATE         004210000 55550144       IDR  000000002066667000       0                 2                  
961050    2004200430AMS04/20_T  E 000000000100000000CJV2  200430           FSB  2004144ESTIMATE TERMINATE         004210000 55550144       IDR  000000000100000000       0                 2                  
961050    2004200430AMS04/20_T  E 000000001000000000CJV2  200430           FSB  2004144ESTIMATE TERMINATE         004210000 55550144       IDR  000000001000000000       0                 2                  
961050    2004200430AMS04/20_T  E 000000002066667000CJV2  200430           FSB  2004144ESTIMATE TERMINATE         004210000 55550144       IDR  000000002066667000       0                 2                  
961050    2004200430AMS04/20_T  E 000000000100000000CJV2  200430           FSB  2004144ESTIMATE TERMINATE         004210000 55550144       IDR  000000000100000000       0                 2                  
961050    2004200430AMS04/20_T  E 000000001000000000CJV2  200430           FSB  2004144ESTIMATE TERMINATE         004210000 55550144       IDR  000000001000000000       0                 2                  
961050    2004200430AMS04/20_T  E 000000001343333000CJV2  200430           FSB  2004144ESTIMATE TERMINATE         004210000 55550144       IDR  000000001343333000       0                 2                  
961050    2004200430AMS04/20_T  E 000000000065000000CJV2  200430           FSB  2004144ESTIMATE TERMINATE         004210000 55550144       IDR  000000000065000000       0                 2                  
961050    2004200430AMS04/20_T  E 000000000650000000CJV2  200430           FSB  2004144ESTIMATE TERMINATE         004210000 55550144       IDR  000000000650000000       0                 2                  
961050    2004200430AMS04/20_T  E 000000000010000000CJV2  200430           FSB  2004144ESTIMATE TERMINATE         004210000 55550144       IDR  000000000010000000       0                 2                  
961050    2004200430AMS04/20_T  E 000000000206667000CJV2  200430           FSB  2004144ESTIMATE TERMINATE         004210000 55550144       IDR  000000000206667000       0                 2                  
961050    2004200430AMS04/20_T  E 000000000005000000CJV2  200430           FSB  2004144ESTIMATE TERMINATE         004210000 55550144       IDR  000000000005000000       0                 2                  
961050    2004200430AMS04/20_T  E 000000000103333000CJV2  200430           FSB  2004144ESTIMATE TERMINATE         004210000 55550144       IDR  000000000103333000       0                 2                  
961050    2004200430AMS04/20_T  E 000000000006750000DJV2  200430           FSB  2004144ESTIMATE TERMINATE         004210000 55550144       IDR  000000000006750000       0                 2                  
961050    2004200430AMS04/20_T  E 000000000065000000DJV2  200430           FSB  2004144ESTIMATE TERMINATE         004210000 55550144       IDR  000000000065000000       0                 2                  
