535024    2004200501AMS04/20_A  E 000000000349335000DJV2  200501           AMS  2004679ESTIMATE ACTIVE            004210111 00000679       IDR  000000000349335000       0                 2                  
535024    2004200501AMS04/20_A  E 000000000025605000DJV2  200501           AMS  2004679ESTIMATE ACTIVE            004210111 00000679       IDR  000000000025605000       0                 2                  
535024    2004200501AMS04/20_A  E 000000001770000000DJV2  200501           AMS  2004679ESTIMATE ACTIVE            004210111 00000679       IDR  000000001770000000       0                 2                  
535024    2004200501AMS04/20_A  E 000000000040520000DJV2  200501           AMS  2004679ESTIMATE ACTIVE            004210111 00000679       IDR  000000000040520000       0                 2                  
535024    2004200501AMS04/20_A  E 000000000289525000DJV2  200501           AMS  2004679ESTIMATE ACTIVE            004210111 00000679       IDR  000000000289525000       0                 2                  
535024    2004200501AMS04/20_A  E 000000000075000000DJV2  200501           AMS  2004679ESTIMATE ACTIVE            004210111 00000679       IDR  000000000075000000       0                 2                  
554110    2004200501AMS04/20_A  E 000000000475176000DJV2  200501           AMS  2004679ESTIMATE ACTIVE            004210111 00000679       IDR  000000000475176000       0                 2                  
554110    2004200501AMS04/20_A  E 000000011540328000DJV2  200501           AMS  2004679ESTIMATE ACTIVE            004210111 00000679       IDR  000000011540328000       0                 2                  
554110    2004200501AMS04/20_A  E 000000018034688000DJV2  200501           AMS  2004679ESTIMATE ACTIVE            004210111 00000679       IDR  000000018034688000       0                 2                  
554110    2004200501AMS04/20_A  E 000000001000000000DJV2  200501           AMS  2004679ESTIMATE ACTIVE            004210111 00000679       IDR  000000001000000000       0                 2                  
554110    2004200501AMS04/20_A  E 000000103977900000DJV2  200501           AMS  2004679ESTIMATE ACTIVE            004210111 00000679       IDR  000000103977900000       0                 2                  
554110    2004200501AMS04/20_A  E 000000000237588000DJV2  200501           AMS  2004679ESTIMATE ACTIVE            004210111 00000679       IDR  000000000237588000       0                 2                  
554110    2004200501AMS04/20_A  E 000000003933720400DJV2  200501           AMS  2004679ESTIMATE ACTIVE            004210111 00000679       IDR  000000003933720400       0                 2                  
554110    2004200501AMS04/20_A  E 000000000296985000DJV2  200501           AMS  2004679ESTIMATE ACTIVE            004210111 00000679       IDR  000000000296985000       0                 2                  
554110    2004200501AMS04/20_A  E 000000000475176000DJV2  200501           AMS  2004679ESTIMATE ACTIVE            004210111 00000679       IDR  000000000475176000       0                 2                  
554110    2004200501AMS04/20_A  E 000000154712837000DJV2  200501           AMS  2004679ESTIMATE ACTIVE            004210111 00000679       IDR  000000154712837000       0                 2                  
554110    2004200501AMS04/20_A  E 000000034102863200DJV2  200501           AMS  2004679ESTIMATE ACTIVE            004210111 00000679       IDR  000000034102863200       0                 2                  
554110    2004200501AMS04/20_A  E 000000002579315000DJV2  200501           AMS  2004679ESTIMATE ACTIVE            004210111 00000679       IDR  000000002579315000       0                 2                  
554110    2004200501AMS04/20_A  E 000000232698688000DJV2  200501           AMS  2004679ESTIMATE ACTIVE            004210111 00000679       IDR  000000232698688000       0                 2                  
554110    2004200501AMS04/20_A  E 000000008253808000DJV2  200501           AMS  2004679ESTIMATE ACTIVE            004210111 00000679       IDR  000000008253808000       0                 2                  
554110    2004200501AMS04/20_A  E 000000011540328000DJV2  200501           AMS  2004679ESTIMATE ACTIVE            004210111 00000679       IDR  000000011540328000       0                 2                  
554110    2004200501AMS04/20_A  E 000000011577096450DJV2  200501           AMS  2004679ESTIMATE ACTIVE            004210111 00000679       IDR  000000011577096450       0                 2                  
554110    2004200501AMS04/20_A  E 000000011212617600DJV2  200501           AMS  2004679ESTIMATE ACTIVE            004210111 00000679       IDR  000000011212617600       0                 2                  
554110    2004200501AMS04/20_A  E 000000010930279250DJV2  200501           AMS  2004679ESTIMATE ACTIVE            004210111 00000679       IDR  000000010930279250       0                 2                  
554110    2004200501AMS04/20_A  E 000000003005258750DJV2  200501           AMS  2004679ESTIMATE ACTIVE            004210111 00000679       IDR  000000003005258750       0                 2                  
554110    2004200501AMS04/20_A  E 000000145454908250DJV2  200501           AMS  2004679ESTIMATE ACTIVE            004210111 00000679       IDR  000000145454908250       0                 2                  
554110    2004200501AMS04/20_A  E 000000001785160000DJV2  200501           AMS  2004679ESTIMATE ACTIVE            004210111 00000679       IDR  000000001785160000       0                 2                  
554110    2004200501AMS04/20_A  E 000000000443533500DJV2  200501           AMS  2004679ESTIMATE ACTIVE            004210111 00000679       IDR  000000000443533500       0                 2                  
554110    2004200501AMS04/20_A  E 000000000389915000DJV2  200501           AMS  2004679ESTIMATE ACTIVE            004210111 00000679       IDR  000000000389915000       0                 2                  
554110    2004200501AMS04/20_A  E 000000000955808000DJV2  200501           AMS  2004679ESTIMATE ACTIVE            004210111 00000679       IDR  000000000955808000       0                 2                  
554110    2004200501AMS04/20_A  E 000000000281952000DJV2  200501           AMS  2004679ESTIMATE ACTIVE            004210111 00000679       IDR  000000000281952000       0                 2                  
554110    2004200501AMS04/20_A  E 000000003890995600DJV2  200501           AMS  2004679ESTIMATE ACTIVE            004210111 00000679       IDR  000000003890995600       0                 2                  
554110    2004200501AMS04/20_A  E 000000001583672000DJV2  200501           AMS  2004679ESTIMATE ACTIVE            004210111 00000679       IDR  000000001583672000       0                 2                  
554110    2004200501AMS04/20_A  E 000000000042724800DJV2  200501           AMS  2004679ESTIMATE ACTIVE            004210111 00000679       IDR  000000000042724800       0                 2                  
554110    2004200501AMS04/20_A  E 000000001166256000DJV2  200501           AMS  2004679ESTIMATE ACTIVE            004210111 00000679       IDR  000000001166256000       0                 2                  
554110    2004200501AMS04/20_A  E 000000021401914500DJV2  200501           AMS  2004679ESTIMATE ACTIVE            004210111 00000679       IDR  000000021401914500       0                 2                  
554110    2004200501AMS04/20_A  E 000000001600000000DJV2  200501           AMS  2004679ESTIMATE ACTIVE            004210111 00000679       IDR  000000001600000000       0                 2                  
554110    2004200501AMS04/20_A  E 000000214664000000DJV2  200501           AMS  2004679ESTIMATE ACTIVE            004210111 00000679       IDR  000000214664000000       0                 2                  
891810    2004200501AMS04/20_A  E 000000004959500000CJV2  200501           AMS  2004679ESTIMATE ACTIVE            004210000 00000679       IDR  000000004959500000       0                 2                  
905613    2004200501AMS04/20_A  E 000000000009802000CJV2  200501           AMS  2004679ESTIMATE ACTIVE            004210000 00000679       IDR  000000000009802000       0                 2                  
905613    2004200501AMS04/20_A  E 000000018866080000CJV2  200501           AMS  2004679ESTIMATE ACTIVE            004210000 00000679       IDR  000000018866080000       0                 2                  
905613    2004200501AMS04/20_A  E 000000000378975000CJV2  200501           AMS  2004679ESTIMATE ACTIVE            004210000 00000679       IDR  000000000378975000       0                 2                  
905613    2004200501AMS04/20_A  E 000000000059738000CJV2  200501           AMS  2004679ESTIMATE ACTIVE            004210000 00000679       IDR  000000000059738000       0                 2                  
905613    2004200501AMS04/20_A  E 000000000493601000CJV2  200501           AMS  2004679ESTIMATE ACTIVE            004210000 00000679       IDR  000000000493601000       0                 2                  
905613    2004200501AMS04/20_A  E 000000000550344000CJV2  200501           AMS  2004679ESTIMATE ACTIVE            004210000 00000679       IDR  000000000550344000       0                 2                  
905613    2004200501AMS04/20_A  E 000000000148980000CJV2  200501           AMS  2004679ESTIMATE ACTIVE            004210000 00000679       IDR  000000000148980000       0                 2                  
905613    2004200501AMS04/20_A  E 000000000028952000CJV2  200501           AMS  2004679ESTIMATE ACTIVE            004210000 00000679       IDR  000000000028952000       0                 2                  
905613    2004200501AMS04/20_A  E 000000000031841000CJV2  200501           AMS  2004679ESTIMATE ACTIVE            004210000 00000679       IDR  000000000031841000       0                 2                  
905613    2004200501AMS04/20_A  E 000000000003073000CJV2  200501           AMS  2004679ESTIMATE ACTIVE            004210000 00000679       IDR  000000000003073000       0                 2                  
905613    2004200501AMS04/20_A  E 000000000036369000CJV2  200501           AMS  2004679ESTIMATE ACTIVE            004210000 00000679       IDR  000000000036369000       0                 2                  
905613    2004200501AMS04/20_A  E 000000000006000000CJV2  200501           AMS  2004679ESTIMATE ACTIVE            004210000 00000679       IDR  000000000006000000       0                 2                  
905613    2004200501AMS04/20_A  E 000000000496271000CJV2  200501           AMS  2004679ESTIMATE ACTIVE            004210000 00000679       IDR  000000000496271000       0                 2                  
905613    2004200501AMS04/20_A  E 000000000171561000CJV2  200501           AMS  2004679ESTIMATE ACTIVE            004210000 00000679       IDR  000000000171561000       0                 2                  
905613    2004200501AMS04/20_A  E 000000000118775000CJV2  200501           AMS  2004679ESTIMATE ACTIVE            004210000 00000679       IDR  000000000118775000       0                 2                  
905613    2004200501AMS04/20_A  E 000000000031250000CJV2  200501           AMS  2004679ESTIMATE ACTIVE            004210000 00000679       IDR  000000000031250000       0                 2                  
905613    2004200501AMS04/20_A  E 000000001278857000CJV2  200501           AMS  2004679ESTIMATE ACTIVE            004210000 00000679       IDR  000000001278857000       0                 2                  
905613    2004200501AMS04/20_A  E 000000000032932000CJV2  200501           AMS  2004679ESTIMATE ACTIVE            004210000 00000679       IDR  000000000032932000       0                 2                  
905613    2004200501AMS04/20_A  E 000000000770397000CJV2  200501           AMS  2004679ESTIMATE ACTIVE            004210000 00000679       IDR  000000000770397000       0                 2                  
905613    2004200501AMS04/20_A  E 000000005612136000CJV2  200501           AMS  2004679ESTIMATE ACTIVE            004210000 00000679       IDR  000000005612136000       0                 2                  
905613    2004200501AMS04/20_A  E 000000000037500000CJV2  200501           AMS  2004679ESTIMATE ACTIVE            004210000 00000679       IDR  000000000037500000       0                 2                  
905613    2004200501AMS04/20_A  E 000000000057937000CJV2  200501           AMS  2004679ESTIMATE ACTIVE            004210000 00000679       IDR  000000000057937000       0                 2                  
905613    2004200501AMS04/20_A  E 000000000007128000CJV2  200501           AMS  2004679ESTIMATE ACTIVE            004210000 00000679       IDR  000000000007128000       0                 2                  
905613    2004200501AMS04/20_A  E 000000000491715000CJV2  200501           AMS  2004679ESTIMATE ACTIVE            004210000 00000679       IDR  000000000491715000       0                 2                  
905613    2004200501AMS04/20_A  E 000000008317428000CJV2  200501           AMS  2004679ESTIMATE ACTIVE            004210000 00000679       IDR  000000008317428000       0                 2                  
905613    2004200501AMS04/20_A  E 000000011745850000CJV2  200501           AMS  2004679ESTIMATE ACTIVE            004210000 00000679       IDR  000000011745850000       0                 2                  
905613    2004200501AMS04/20_A  E 000000000044758000CJV2  200501           AMS  2004679ESTIMATE ACTIVE            004210000 00000679       IDR  000000000044758000       0                 2                  
905613    2004200501AMS04/20_A  E 000000000039427000CJV2  200501           AMS  2004679ESTIMATE ACTIVE            004210000 00000679       IDR  000000000039427000       0                 2                  
905613    2004200501AMS04/20_A  E 000000000477828000CJV2  200501           AMS  2004679ESTIMATE ACTIVE            004210000 00000679       IDR  000000000477828000       0                 2                  
905613    2004200501AMS04/20_A  E 000000000140000000CJV2  200501           AMS  2004679ESTIMATE ACTIVE            004210000 00000679       IDR  000000000140000000       0                 2                  
905613    2004200501AMS04/20_A  E 000000063915500000CJV2  200501           AMS  2004679ESTIMATE ACTIVE            004210000 00000679       IDR  000000063915500000       0                 2                  
905613    2004200501AMS04/20_A  E 000000000817643000CJV2  200501           AMS  2004679ESTIMATE ACTIVE            004210000 00000679       IDR  000000000817643000       0                 2                  
905613    2004200501AMS04/20_A  E 000000000047510000CJV2  200501           AMS  2004679ESTIMATE ACTIVE            004210000 00000679       IDR  000000000047510000       0                 2                  
905613    2004200501AMS04/20_A  E 000000000115462000CJV2  200501           AMS  2004679ESTIMATE ACTIVE            004210000 00000679       IDR  000000000115462000       0                 2                  
905613    2004200501AMS04/20_A  E 000000000041578000CJV2  200501           AMS  2004679ESTIMATE ACTIVE            004210000 00000679       IDR  000000000041578000       0                 2                  
905613    2004200501AMS04/20_A  E 000000000044758000CJV2  200501           AMS  2004679ESTIMATE ACTIVE            004210000 00000679       IDR  000000000044758000       0                 2                  
905613    2004200501AMS04/20_A  E 000000001296785000CJV2  200501           AMS  2004679ESTIMATE ACTIVE            004210000 00000679       IDR  000000001296785000       0                 2                  
905613    2004200501AMS04/20_A  E 000000003542220000CJV2  200501           AMS  2004679ESTIMATE ACTIVE            004210000 00000679       IDR  000000003542220000       0                 2                  
905613    2004200501AMS04/20_A  E 000000000123457000CJV2  200501           AMS  2004679ESTIMATE ACTIVE            004210000 00000679       IDR  000000000123457000       0                 2                  
961050    2004200501AMS04/20_A  E 000000000125420000CJV2  200501           AMS  2004679ESTIMATE ACTIVE            004210000 55550679       IDR  000000000125420000       0                 2                  
961050    2004200501AMS04/20_A  E 000000007080000000CJV2  200501           AMS  2004679ESTIMATE ACTIVE            004210000 55550679       IDR  000000007080000000       0                 2                  
961050    2004200501AMS04/20_A  E 000000000727840000CJV2  200501           AMS  2004679ESTIMATE ACTIVE            004210000 55550679       IDR  000000000727840000       0                 2                  
961050    2004200501AMS04/20_A  E 000000001542460000CJV2  200501           AMS  2004679ESTIMATE ACTIVE            004210000 55550679       IDR  000000001542460000       0                 2                  
961050    2004200501AMS04/20_A  E 000000000250000000CJV2  200501           AMS  2004679ESTIMATE ACTIVE            004210000 55550679       IDR  000000000250000000       0                 2                  
961050    2004200501AMS04/20_A  E 000000000100000000CJV2  200501           AMS  2004679ESTIMATE ACTIVE            004210000 55550679       IDR  000000000100000000       0                 2                  
961050    2004200501AMS04/20_A  E 000000000122480000CJV2  200501           AMS  2004679ESTIMATE ACTIVE            004210000 55550679       IDR  000000000122480000       0                 2                  
961050    2004200501AMS04/20_A  E 000000000105020000CJV2  200501           AMS  2004679ESTIMATE ACTIVE            004210000 55550679       IDR  000000000105020000       0                 2                  
961050    2004200501AMS04/20_A  E 000000000069660000CJV2  200501           AMS  2004679ESTIMATE ACTIVE            004210000 55550679       IDR  000000000069660000       0                 2                  
961050    2004200501AMS04/20_A  E 000000000069620000CJV2  200501           AMS  2004679ESTIMATE ACTIVE            004210000 55550679       IDR  000000000069620000       0                 2                  
961050    2004200501AMS04/20_A  E 000000002320960000CJV2  200501           AMS  2004679ESTIMATE ACTIVE            004210000 55550679       IDR  000000002320960000       0                 2                  
961050    2004200501AMS04/20_A  E 000000000151160000CJV2  200501           AMS  2004679ESTIMATE ACTIVE            004210000 55550679       IDR  000000000151160000       0                 2                  
961050    2004200501AMS04/20_A  E 000000000128900000CJV2  200501           AMS  2004679ESTIMATE ACTIVE            004210000 55550679       IDR  000000000128900000       0                 2                  
961050    2004200501AMS04/20_A  E 000000000116140000CJV2  200501           AMS  2004679ESTIMATE ACTIVE            004210000 55550679       IDR  000000000116140000       0                 2                  
961050    2004200501AMS04/20_A  E 000000000872660000CJV2  200501           AMS  2004679ESTIMATE ACTIVE            004210000 55550679       IDR  000000000872660000       0                 2                  
961050    2004200501AMS04/20_A  E 000000000158620000CJV2  200501           AMS  2004679ESTIMATE ACTIVE            004210000 55550679       IDR  000000000158620000       0                 2                  
961050    2004200501AMS04/20_A  E 000000000312500000CJV2  200501           AMS  2004679ESTIMATE ACTIVE            004210000 55550679       IDR  000000000312500000       0                 2                  
961050    2004200501AMS04/20_A  E 000000000104060000CJV2  200501           AMS  2004679ESTIMATE ACTIVE            004210000 55550679       IDR  000000000104060000       0                 2                  
961050    2004200501AMS04/20_A  E 000000000134000000CJV2  200501           AMS  2004679ESTIMATE ACTIVE            004210000 55550679       IDR  000000000134000000       0                 2                  
961050    2004200501AMS04/20_A  E 000000001847460000CJV2  200501           AMS  2004679ESTIMATE ACTIVE            004210000 55550679       IDR  000000001847460000       0                 2                  
961050    2004200501AMS04/20_A  E 000000001094240000CJV2  200501           AMS  2004679ESTIMATE ACTIVE            004210000 55550679       IDR  000000001094240000       0                 2                  
961050    2004200501AMS04/20_A  E 000000000872200000CJV2  200501           AMS  2004679ESTIMATE ACTIVE            004210000 55550679       IDR  000000000872200000       0                 2                  
961050    2004200501AMS04/20_A  E 000000000814600000CJV2  200501           AMS  2004679ESTIMATE ACTIVE            004210000 55550679       IDR  000000000814600000       0                 2                  
961050    2004200501AMS04/20_A  E 000000000813980000CJV2  200501           AMS  2004679ESTIMATE ACTIVE            004210000 55550679       IDR  000000000813980000       0                 2                  
961050    2004200501AMS04/20_A  E 000000001094240000CJV2  200501           AMS  2004679ESTIMATE ACTIVE            004210000 55550679       IDR  000000001094240000       0                 2                  
961050    2004200501AMS04/20_A  E 000000000813980000CJV2  200501           AMS  2004679ESTIMATE ACTIVE            004210000 55550679       IDR  000000000813980000       0                 2                  
961050    2004200501AMS04/20_A  E 000000002442140000CJV2  200501           AMS  2004679ESTIMATE ACTIVE            004210000 55550679       IDR  000000002442140000       0                 2                  
961050    2004200501AMS04/20_A  E 000000000242250000CJV2  200501           AMS  2004679ESTIMATE ACTIVE            004210000 55550679       IDR  000000000242250000       0                 2                  
961050    2004200501AMS04/20_A  E 000000000955808000CJV2  200501           AMS  2004679ESTIMATE ACTIVE            004210000 55550679       IDR  000000000955808000       0                 2                  
961050    2004200501AMS04/20_A  E 000000000281952000CJV2  200501           AMS  2004679ESTIMATE ACTIVE            004210000 55550679       IDR  000000000281952000       0                 2                  
961050    2004200501AMS04/20_A  E 000000000084140000CJV2  200501           AMS  2004679ESTIMATE ACTIVE            004210000 55550679       IDR  000000000084140000       0                 2                  
961050    2004200501AMS04/20_A  E 000000000237400000CJV2  200501           AMS  2004679ESTIMATE ACTIVE            004210000 55550679       IDR  000000000237400000       0                 2                  
961050    2004200501AMS04/20_A  E 000000000184500000CJV2  200501           AMS  2004679ESTIMATE ACTIVE            004210000 55550679       IDR  000000000184500000       0                 2                  
961050    2004200501AMS04/20_A  E 000000000154830000CJV2  200501           AMS  2004679ESTIMATE ACTIVE            004210000 55550679       IDR  000000000154830000       0                 2                  
961050    2004200501AMS04/20_A  E 000000000079680000CJV2  200501           AMS  2004679ESTIMATE ACTIVE            004210000 55550679       IDR  000000000079680000       0                 2                  
961050    2004200501AMS04/20_A  E 000000000814600000CJV2  200501           AMS  2004679ESTIMATE ACTIVE            004210000 55550679       IDR  000000000814600000       0                 2                  
961050    2004200501AMS04/20_A  E 000000000872200000CJV2  200501           AMS  2004679ESTIMATE ACTIVE            004210000 55550679       IDR  000000000872200000       0                 2                  
961050    2004200501AMS04/20_A  E 000000000080760000CJV2  200501           AMS  2004679ESTIMATE ACTIVE            004210000 55550679       IDR  000000000080760000       0                 2                  
961050    2004200501AMS04/20_A  E 000000000445600000CJV2  200501           AMS  2004679ESTIMATE ACTIVE            004210000 55550679       IDR  000000000445600000       0                 2                  
961050    2004200501AMS04/20_A  E 000000000445600000CJV2  200501           AMS  2004679ESTIMATE ACTIVE            004210000 55550679       IDR  000000000445600000       0                 2                  
961050    2004200501AMS04/20_A  E 000000000445600000CJV2  200501           AMS  2004679ESTIMATE ACTIVE            004210000 55550679       IDR  000000000445600000       0                 2                  
961050    2004200501AMS04/20_A  E 000000000025605000CJV2  200501           AMS  2004679ESTIMATE ACTIVE            004210000 55550679       IDR  000000000025605000       0                 2                  
961050    2004200501AMS04/20_A  E 000000000491060000CJV2  200501           AMS  2004679ESTIMATE ACTIVE            004210000 55550679       IDR  000000000491060000       0                 2                  
961050    2004200501AMS04/20_A  E 000000000447740000CJV2  200501           AMS  2004679ESTIMATE ACTIVE            004210000 55550679       IDR  000000000447740000       0                 2                  
961050    2004200501AMS04/20_A  E 000000000095800000CJV2  200501           AMS  2004679ESTIMATE ACTIVE            004210000 55550679       IDR  000000000095800000       0                 2                  
961050    2004200501AMS04/20_A  E 000000001010180000CJV2  200501           AMS  2004679ESTIMATE ACTIVE            004210000 55550679       IDR  000000001010180000       0                 2                  
961050    2004200501AMS04/20_A  E 000000000075940000CJV2  200501           AMS  2004679ESTIMATE ACTIVE            004210000 55550679       IDR  000000000075940000       0                 2                  
961050    2004200501AMS04/20_A  E 000000000103620000CJV2  200501           AMS  2004679ESTIMATE ACTIVE            004210000 55550679       IDR  000000000103620000       0                 2                  
961050    2004200501AMS04/20_A  E 000000000080760000CJV2  200501           AMS  2004679ESTIMATE ACTIVE            004210000 55550679       IDR  000000000080760000       0                 2                  
961050    2004200501AMS04/20_A  E 000000000084420000CJV2  200501           AMS  2004679ESTIMATE ACTIVE            004210000 55550679       IDR  000000000084420000       0                 2                  
961050    2004200501AMS04/20_A  E 000000000143640000CJV2  200501           AMS  2004679ESTIMATE ACTIVE            004210000 55550679       IDR  000000000143640000       0                 2                  
961050    2004200501AMS04/20_A  E 000000000114000000CJV2  200501           AMS  2004679ESTIMATE ACTIVE            004210000 55550679       IDR  000000000114000000       0                 2                  
961050    2004200501AMS04/20_A  E 000000000028500000CJV2  200501           AMS  2004679ESTIMATE ACTIVE            004210000 55550679       IDR  000000000028500000       0                 2                  
961050    2004200501AMS04/20_A  E 000000000814600000CJV2  200501           AMS  2004679ESTIMATE ACTIVE            004210000 55550679       IDR  000000000814600000       0                 2                  
961050    2004200501AMS04/20_A  E 000000000813980000CJV2  200501           AMS  2004679ESTIMATE ACTIVE            004210000 55550679       IDR  000000000813980000       0                 2                  
961050    2004200501AMS04/20_A  E 000000001094240000CJV2  200501           AMS  2004679ESTIMATE ACTIVE            004210000 55550679       IDR  000000001094240000       0                 2                  
961050    2004200501AMS04/20_A  E 000000000872200000CJV2  200501           AMS  2004679ESTIMATE ACTIVE            004210000 55550679       IDR  000000000872200000       0                 2                  
961050    2004200501AMS04/20_A  E 000000000657300000CJV2  200501           AMS  2004679ESTIMATE ACTIVE            004210000 55550679       IDR  000000000657300000       0                 2                  
961050    2004200501AMS04/20_A  E 000000005041080000CJV2  200501           AMS  2004679ESTIMATE ACTIVE            004210000 55550679       IDR  000000005041080000       0                 2                  
961050    2004200501AMS04/20_A  E 000000000062500000CJV2  200501           AMS  2004679ESTIMATE ACTIVE            004210000 55550679       IDR  000000000062500000       0                 2                  
961050    2004200501AMS04/20_A  E 000000000579015000CJV2  200501           AMS  2004679ESTIMATE ACTIVE            004210000 55550679       IDR  000000000579015000       0                 2                  
961050    2004200501AMS04/20_A  E 000000001149520000CJV2  200501           AMS  2004679ESTIMATE ACTIVE            004210000 55550679       IDR  000000001149520000       0                 2                  
961050    2004200501AMS04/20_A  E 000000000815730000CJV2  200501           AMS  2004679ESTIMATE ACTIVE            004210000 55550679       IDR  000000000815730000       0                 2                  
961050    2004200501AMS04/20_A  E 000000000697200000CJV2  200501           AMS  2004679ESTIMATE ACTIVE            004210000 55550679       IDR  000000000697200000       0                 2                  
961050    2004200501AMS04/20_A  E 000000000695470000CJV2  200501           AMS  2004679ESTIMATE ACTIVE            004210000 55550679       IDR  000000000695470000       0                 2                  
961050    2004200501AMS04/20_A  E 000000000341580000CJV2  200501           AMS  2004679ESTIMATE ACTIVE            004210000 55550679       IDR  000000000341580000       0                 2                  
961050    2004200501AMS04/20_A  E 000000000250000000CJV2  200501           AMS  2004679ESTIMATE ACTIVE            004210000 55550679       IDR  000000000250000000       0                 2                  
961050    2004200501AMS04/20_A  E 000000000005125000CJV2  200501           AMS  2004679ESTIMATE ACTIVE            004210000 55550679       IDR  000000000005125000       0                 2                  
961050    2004200501AMS04/20_A  E 000000000187700000CJV2  200501           AMS  2004679ESTIMATE ACTIVE            004210000 55550679       IDR  000000000187700000       0                 2                  
961050    2004200501AMS04/20_A  E 000000000702640000CJV2  200501           AMS  2004679ESTIMATE ACTIVE            004210000 55550679       IDR  000000000702640000       0                 2                  
961050    2004200501AMS04/20_A  E 000000000222380000CJV2  200501           AMS  2004679ESTIMATE ACTIVE            004210000 55550679       IDR  000000000222380000       0                 2                  
961050    2004200501AMS04/20_A  E 000000002000000000CJV2  200501           AMS  2004679ESTIMATE ACTIVE            004210000 55550679       IDR  000000002000000000       0                 2                  
961050    2004200501AMS04/20_A  E 000000000002500000CJV2  200501           AMS  2004679ESTIMATE ACTIVE            004210000 55550679       IDR  000000000002500000       0                 2                  
961050    2004200501AMS04/20_A  E 000000002000000000CJV2  200501           AMS  2004679ESTIMATE ACTIVE            004210000 55550679       IDR  000000002000000000       0                 2                  
961050    2004200501AMS04/20_A  E 000000002000000000CJV2  200501           AMS  2004679ESTIMATE ACTIVE            004210000 55550679       IDR  000000002000000000       0                 2                  
961050    2004200501AMS04/20_A  E 000000000083340000CJV2  200501           AMS  2004679ESTIMATE ACTIVE            004210000 55550679       IDR  000000000083340000       0                 2                  
961050    2004200501AMS04/20_A  E 000000000297080000CJV2  200501           AMS  2004679ESTIMATE ACTIVE            004210000 55550679       IDR  000000000297080000       0                 2                  
961050    2004200501AMS04/20_A  E 000000000260775000CJV2  200501           AMS  2004679ESTIMATE ACTIVE            004210000 55550679       IDR  000000000260775000       0                 2                  
961050    2004200501AMS04/20_A  E 000000005682600000CJV2  200501           AMS  2004679ESTIMATE ACTIVE            004210000 55550679       IDR  000000005682600000       0                 2                  
961050    2004200501AMS04/20_A  E 000000010508730000CJV2  200501           AMS  2004679ESTIMATE ACTIVE            004210000 55550679       IDR  000000010508730000       0                 2                  
961050    2004200501AMS04/20_A  E 000000000001250000CJV2  200501           AMS  2004679ESTIMATE ACTIVE            004210000 55550679       IDR  000000000001250000       0                 2                  
961050    2004200501AMS04/20_A  E 000000000470250000CJV2  200501           AMS  2004679ESTIMATE ACTIVE            004210000 55550679       IDR  000000000470250000       0                 2                  
961050    2004200501AMS04/20_A  E 000000000242250000CJV2  200501           AMS  2004679ESTIMATE ACTIVE            004210000 55550679       IDR  000000000242250000       0                 2                  
961050    2004200501AMS04/20_A  E 000000002442140000CJV2  200501           AMS  2004679ESTIMATE ACTIVE            004210000 55550679       IDR  000000002442140000       0                 2                  
961050    2004200501AMS04/20_A  E 000000000073700000CJV2  200501           AMS  2004679ESTIMATE ACTIVE            004210000 55550679       IDR  000000000073700000       0                 2                  
961050    2004200501AMS04/20_A  E 000000000151120000CJV2  200501           AMS  2004679ESTIMATE ACTIVE            004210000 55550679       IDR  000000000151120000       0                 2                  
961050    2004200501AMS04/20_A  E 000000000115560000CJV2  200501           AMS  2004679ESTIMATE ACTIVE            004210000 55550679       IDR  000000000115560000       0                 2                  
961050    2004200501AMS04/20_A  E 000000011767441000CJV2  200501           AMS  2004679ESTIMATE ACTIVE            004210000 55550679       IDR  000000011767441000       0                 2                  
961050    2004200501AMS04/20_A  E 000000006577363000CJV2  200501           AMS  2004679ESTIMATE ACTIVE            004210000 55550679       IDR  000000006577363000       0                 2                  
961050    2004200501AMS04/20_A  E 000000002250000000CJV2  200501           AMS  2004679ESTIMATE ACTIVE            004210000 55550679       IDR  000000002250000000       0                 2                  
961050    2004200501AMS04/20_A  E 000000000150000000CJV2  200501           AMS  2004679ESTIMATE ACTIVE            004210000 55550679       IDR  000000000150000000       0                 2                  
961050    2004200501AMS04/20_A  E 000000002586400000CJV2  200501           AMS  2004679ESTIMATE ACTIVE            004210000 55550679       IDR  000000002586400000       0                 2                  
961050    2004200501AMS04/20_A  E 000000002250000000CJV2  200501           AMS  2004679ESTIMATE ACTIVE            004210000 55550679       IDR  000000002250000000       0                 2                  
961050    2004200501AMS04/20_A  E 000000002586400000CJV2  200501           AMS  2004679ESTIMATE ACTIVE            004210000 55550679       IDR  000000002586400000       0                 2                  
961050    2004200501AMS04/20_A  E 000000002586400000CJV2  200501           AMS  2004679ESTIMATE ACTIVE            004210000 55550679       IDR  000000002586400000       0                 2                  
961050    2004200501AMS04/20_A  E 000000002250000000CJV2  200501           AMS  2004679ESTIMATE ACTIVE            004210000 55550679       IDR  000000002250000000       0                 2                  
961050    2004200501AMS04/20_A  E 000000000150000000CJV2  200501           AMS  2004679ESTIMATE ACTIVE            004210000 55550679       IDR  000000000150000000       0                 2                  
961050    2004200501AMS04/20_A  E 000000000150000000CJV2  200501           AMS  2004679ESTIMATE ACTIVE            004210000 55550679       IDR  000000000150000000       0                 2                  
961050    2004200501AMS04/20_A  E 000000000079100000CJV2  200501           AMS  2004679ESTIMATE ACTIVE            004210000 55550679       IDR  000000000079100000       0                 2                  
961050    2004200501AMS04/20_A  E 000000000077240000CJV2  200501           AMS  2004679ESTIMATE ACTIVE            004210000 55550679       IDR  000000000077240000       0                 2                  
961050    2004200501AMS04/20_A  E 000000004308160000CJV2  200501           AMS  2004679ESTIMATE ACTIVE            004210000 55550679       IDR  000000004308160000       0                 2                  
961050    2004200501AMS04/20_A  E 000000000139440000CJV2  200501           AMS  2004679ESTIMATE ACTIVE            004210000 55550679       IDR  000000000139440000       0                 2                  
961050    2004200501AMS04/20_A  E 000000000275300000CJV2  200501           AMS  2004679ESTIMATE ACTIVE            004210000 55550679       IDR  000000000275300000       0                 2                  
961050    2004200501AMS04/20_A  E 000000000175040000CJV2  200501           AMS  2004679ESTIMATE ACTIVE            004210000 55550679       IDR  000000000175040000       0                 2                  
961050    2004200501AMS04/20_A  E 000000000275300000CJV2  200501           AMS  2004679ESTIMATE ACTIVE            004210000 55550679       IDR  000000000275300000       0                 2                  
961050    2004200501AMS04/20_A  E 000000000175040000CJV2  200501           AMS  2004679ESTIMATE ACTIVE            004210000 55550679       IDR  000000000175040000       0                 2                  
961050    2004200501AMS04/20_A  E 000000000275300000CJV2  200501           AMS  2004679ESTIMATE ACTIVE            004210000 55550679       IDR  000000000275300000       0                 2                  
961050    2004200501AMS04/20_A  E 000000000175040000CJV2  200501           AMS  2004679ESTIMATE ACTIVE            004210000 55550679       IDR  000000000175040000       0                 2                  
961050    2004200501AMS04/20_A  E 000000000139440000CJV2  200501           AMS  2004679ESTIMATE ACTIVE            004210000 55550679       IDR  000000000139440000       0                 2                  
961050    2004200501AMS04/20_A  E 000000000971880000CJV2  200501           AMS  2004679ESTIMATE ACTIVE            004210000 55550679       IDR  000000000971880000       0                 2                  
961050    2004200501AMS04/20_A  E 000000000971880000CJV2  200501           AMS  2004679ESTIMATE ACTIVE            004210000 55550679       IDR  000000000971880000       0                 2                  
961050    2004200501AMS04/20_A  E 000000000971880000CJV2  200501           AMS  2004679ESTIMATE ACTIVE            004210000 55550679       IDR  000000000971880000       0                 2                  
961050    2004200501AMS04/20_A  E 000000001010180000CJV2  200501           AMS  2004679ESTIMATE ACTIVE            004210000 55550679       IDR  000000001010180000       0                 2                  
961050    2004200501AMS04/20_A  E 000000000422200000CJV2  200501           AMS  2004679ESTIMATE ACTIVE            004210000 55550679       IDR  000000000422200000       0                 2                  
961050    2004200501AMS04/20_A  E 000000000121660000CJV2  200501           AMS  2004679ESTIMATE ACTIVE            004210000 55550679       IDR  000000000121660000       0                 2                  
961050    2004200501AMS04/20_A  E 000000004865300000CJV2  200501           AMS  2004679ESTIMATE ACTIVE            004210000 55550679       IDR  000000004865300000       0                 2                  
961050    2004200501AMS04/20_A  E 000000000158920000CJV2  200501           AMS  2004679ESTIMATE ACTIVE            004210000 55550679       IDR  000000000158920000       0                 2                  
961050    2004200501AMS04/20_A  E 000000000159120000CJV2  200501           AMS  2004679ESTIMATE ACTIVE            004210000 55550679       IDR  000000000159120000       0                 2                  
961050    2004200501AMS04/20_A  E 000000000075600000CJV2  200501           AMS  2004679ESTIMATE ACTIVE            004210000 55550679       IDR  000000000075600000       0                 2                  
961050    2004200501AMS04/20_A  E 000000000102860000CJV2  200501           AMS  2004679ESTIMATE ACTIVE            004210000 55550679       IDR  000000000102860000       0                 2                  
961050    2004200501AMS04/20_A  E 000000000162080000CJV2  200501           AMS  2004679ESTIMATE ACTIVE            004210000 55550679       IDR  000000000162080000       0                 2                  
961050    2004200501AMS04/20_A  E 000000000124600000CJV2  200501           AMS  2004679ESTIMATE ACTIVE            004210000 55550679       IDR  000000000124600000       0                 2                  
961050    2004200501AMS04/20_A  E 000000000088780000CJV2  200501           AMS  2004679ESTIMATE ACTIVE            004210000 55550679       IDR  000000000088780000       0                 2                  
961050    2004200501AMS04/20_A  E 000000000854940000CJV2  200501           AMS  2004679ESTIMATE ACTIVE            004210000 55550679       IDR  000000000854940000       0                 2                  
961050    2004200501AMS04/20_A  E 000000001061370000CJV2  200501           AMS  2004679ESTIMATE ACTIVE            004210000 55550679       IDR  000000001061370000       0                 2                  
961050    2004200501AMS04/20_A  E 000000000150000000CJV2  200501           AMS  2004679ESTIMATE ACTIVE            004210000 55550679       IDR  000000000150000000       0                 2                  
961050    2004200501AMS04/20_A  E 000000000001250000CJV2  200501           AMS  2004679ESTIMATE ACTIVE            004210000 55550679       IDR  000000000001250000       0                 2                  
961050    2004200501AMS04/20_A  E 000000000001250000CJV2  200501           AMS  2004679ESTIMATE ACTIVE            004210000 55550679       IDR  000000000001250000       0                 2                  
961050    2004200501AMS04/20_A  E 000000000001250000CJV2  200501           AMS  2004679ESTIMATE ACTIVE            004210000 55550679       IDR  000000000001250000       0                 2                  
961050    2004200501AMS04/20_A  E 000000000150000000CJV2  200501           AMS  2004679ESTIMATE ACTIVE            004210000 55550679       IDR  000000000150000000       0                 2                  
961050    2004200501AMS04/20_A  E 000000000150000000CJV2  200501           AMS  2004679ESTIMATE ACTIVE            004210000 55550679       IDR  000000000150000000       0                 2                  
961050    2004200501AMS04/20_A  E 000000000002420000CJV2  200501           AMS  2004679ESTIMATE ACTIVE            004210000 55550679       IDR  000000000002420000       0                 2                  
961050    2004200501AMS04/20_A  E 000000000100000000CJV2  200501           AMS  2004679ESTIMATE ACTIVE            004210000 55550679       IDR  000000000100000000       0                 2                  
961050    2004200501AMS04/20_A  E 000000003129280000CJV2  200501           AMS  2004679ESTIMATE ACTIVE            004210000 55550679       IDR  000000003129280000       0                 2                  
961050    2004200501AMS04/20_A  E 000000001730800000CJV2  200501           AMS  2004679ESTIMATE ACTIVE            004210000 55550679       IDR  000000001730800000       0                 2                  
961050    2004200501AMS04/20_A  E 000000000612300000CJV2  200501           AMS  2004679ESTIMATE ACTIVE            004210000 55550679       IDR  000000000612300000       0                 2                  
961050    2004200501AMS04/20_A  E 000000000200000000CJV2  200501           AMS  2004679ESTIMATE ACTIVE            004210000 55550679       IDR  000000000200000000       0                 2                  
961050    2004200501AMS04/20_A  E 000000000200000000CJV2  200501           AMS  2004679ESTIMATE ACTIVE            004210000 55550679       IDR  000000000200000000       0                 2                  
961050    2004200501AMS04/20_A  E 000000000200000000CJV2  200501           AMS  2004679ESTIMATE ACTIVE            004210000 55550679       IDR  000000000200000000       0                 2                  
961050    2004200501AMS04/20_A  E 000000001335200000CJV2  200501           AMS  2004679ESTIMATE ACTIVE            004210000 55550679       IDR  000000001335200000       0                 2                  
961050    2004200501AMS04/20_A  E 000000000100000000CJV2  200501           AMS  2004679ESTIMATE ACTIVE            004210000 55550679       IDR  000000000100000000       0                 2                  
961050    2004200501AMS04/20_A  E 000000000100000000CJV2  200501           AMS  2004679ESTIMATE ACTIVE            004210000 55550679       IDR  000000000100000000       0                 2                  
961050    2004200501AMS04/20_A  E 000000000888400000CJV2  200501           AMS  2004679ESTIMATE ACTIVE            004210000 55550679       IDR  000000000888400000       0                 2                  
961050    2004200501AMS04/20_A  E 000000002442140000CJV2  200501           AMS  2004679ESTIMATE ACTIVE            004210000 55550679       IDR  000000002442140000       0                 2                  
961050    2004200501AMS04/20_A  E 000000000859340000CJV2  200501           AMS  2004679ESTIMATE ACTIVE            004210000 55550679       IDR  000000000859340000       0                 2                  
961050    2004200501AMS04/20_A  E 000000001658800000CJV2  200501           AMS  2004679ESTIMATE ACTIVE            004210000 55550679       IDR  000000001658800000       0                 2                  
961050    2004200501AMS04/20_A  E 000000001394400000CJV2  200501           AMS  2004679ESTIMATE ACTIVE            004210000 55550679       IDR  000000001394400000       0                 2                  
961050    2004200501AMS04/20_A  E 000000001394400000CJV2  200501           AMS  2004679ESTIMATE ACTIVE            004210000 55550679       IDR  000000001394400000       0                 2                  
961050    2004200501AMS04/20_A  E 000000002133780000CJV2  200501           AMS  2004679ESTIMATE ACTIVE            004210000 55550679       IDR  000000002133780000       0                 2                  
961050    2004200501AMS04/20_A  E 000000001487320000CJV2  200501           AMS  2004679ESTIMATE ACTIVE            004210000 55550679       IDR  000000001487320000       0                 2                  
961050    2004200501AMS04/20_A  E 000000001341080000CJV2  200501           AMS  2004679ESTIMATE ACTIVE            004210000 55550679       IDR  000000001341080000       0                 2                  
961050    2004200501AMS04/20_A  E 000000001341080000CJV2  200501           AMS  2004679ESTIMATE ACTIVE            004210000 55550679       IDR  000000001341080000       0                 2                  
961050    2004200501AMS04/20_A  E 000000002133780000CJV2  200501           AMS  2004679ESTIMATE ACTIVE            004210000 55550679       IDR  000000002133780000       0                 2                  
961050    2004200501AMS04/20_A  E 000000001487320000CJV2  200501           AMS  2004679ESTIMATE ACTIVE            004210000 55550679       IDR  000000001487320000       0                 2                  
961050    2004200501AMS04/20_A  E 000000001341080000CJV2  200501           AMS  2004679ESTIMATE ACTIVE            004210000 55550679       IDR  000000001341080000       0                 2                  
961050    2004200501AMS04/20_A  E 000000001341080000CJV2  200501           AMS  2004679ESTIMATE ACTIVE            004210000 55550679       IDR  000000001341080000       0                 2                  
961050    2004200501AMS04/20_A  E 000000002133780000CJV2  200501           AMS  2004679ESTIMATE ACTIVE            004210000 55550679       IDR  000000002133780000       0                 2                  
961050    2004200501AMS04/20_A  E 000000001487320000CJV2  200501           AMS  2004679ESTIMATE ACTIVE            004210000 55550679       IDR  000000001487320000       0                 2                  
961050    2004200501AMS04/20_A  E 000000001341080000CJV2  200501           AMS  2004679ESTIMATE ACTIVE            004210000 55550679       IDR  000000001341080000       0                 2                  
961050    2004200501AMS04/20_A  E 000000002148040000CJV2  200501           AMS  2004679ESTIMATE ACTIVE            004210000 55550679       IDR  000000002148040000       0                 2                  
961050    2004200501AMS04/20_A  E 000000000091125000CJV2  200501           AMS  2004679ESTIMATE ACTIVE            004210000 55550679       IDR  000000000091125000       0                 2                  
961050    2004200501AMS04/20_A  E 000000000052125000CJV2  200501           AMS  2004679ESTIMATE ACTIVE            004210000 55550679       IDR  000000000052125000       0                 2                  
961050    2004200501AMS04/20_A  E 000000000052125000CJV2  200501           AMS  2004679ESTIMATE ACTIVE            004210000 55550679       IDR  000000000052125000       0                 2                  
961050    2004200501AMS04/20_A  E 000000000052125000CJV2  200501           AMS  2004679ESTIMATE ACTIVE            004210000 55550679       IDR  000000000052125000       0                 2                  
961050    2004200501AMS04/20_A  E 000000000091125000CJV2  200501           AMS  2004679ESTIMATE ACTIVE            004210000 55550679       IDR  000000000091125000       0                 2                  
961050    2004200501AMS04/20_A  E 000000000091125000CJV2  200501           AMS  2004679ESTIMATE ACTIVE            004210000 55550679       IDR  000000000091125000       0                 2                  
961050    2004200501AMS04/20_A  E 000000000627000000CJV2  200501           AMS  2004679ESTIMATE ACTIVE            004210000 55550679       IDR  000000000627000000       0                 2                  
961050    2004200501AMS04/20_A  E 000000000007925000CJV2  200501           AMS  2004679ESTIMATE ACTIVE            004210000 55550679       IDR  000000000007925000       0                 2                  
961050    2004200501AMS04/20_A  E 000000000158620000CJV2  200501           AMS  2004679ESTIMATE ACTIVE            004210000 55550679       IDR  000000000158620000       0                 2                  
961050    2004200501AMS04/20_A  E 000000000158620000CJV2  200501           AMS  2004679ESTIMATE ACTIVE            004210000 55550679       IDR  000000000158620000       0                 2                  
961050    2004200501AMS04/20_A  E 000000000152860000CJV2  200501           AMS  2004679ESTIMATE ACTIVE            004210000 55550679       IDR  000000000152860000       0                 2                  
961050    2004200501AMS04/20_A  E 000000000151160000CJV2  200501           AMS  2004679ESTIMATE ACTIVE            004210000 55550679       IDR  000000000151160000       0                 2                  
961050    2004200501AMS04/20_A  E 000000000130820000CJV2  200501           AMS  2004679ESTIMATE ACTIVE            004210000 55550679       IDR  000000000130820000       0                 2                  
961050    2004200501AMS04/20_A  E 000000000657300000CJV2  200501           AMS  2004679ESTIMATE ACTIVE            004210000 55550679       IDR  000000000657300000       0                 2                  
961050    2004200501AMS04/20_A  E 000000000081780000CJV2  200501           AMS  2004679ESTIMATE ACTIVE            004210000 55550679       IDR  000000000081780000       0                 2                  
961050    2004200501AMS04/20_A  E 000000000120620000CJV2  200501           AMS  2004679ESTIMATE ACTIVE            004210000 55550679       IDR  000000000120620000       0                 2                  
961050    2004200501AMS04/20_A  E 000000000188940000CJV2  200501           AMS  2004679ESTIMATE ACTIVE            004210000 55550679       IDR  000000000188940000       0                 2                  
961050    2004200501AMS04/20_A  E 000000001881600000CJV2  200501           AMS  2004679ESTIMATE ACTIVE            004210000 55550679       IDR  000000001881600000       0                 2                  
961050    2004200501AMS04/20_A  E 000000001793760000CJV2  200501           AMS  2004679ESTIMATE ACTIVE            004210000 55550679       IDR  000000001793760000       0                 2                  
961050    2004200501AMS04/20_A  E 000000000069520000CJV2  200501           AMS  2004679ESTIMATE ACTIVE            004210000 55550679       IDR  000000000069520000       0                 2                  
961050    2004200501AMS04/20_A  E 000000000069660000CJV2  200501           AMS  2004679ESTIMATE ACTIVE            004210000 55550679       IDR  000000000069660000       0                 2                  
961050    2004200501AMS04/20_A  E 000000000144640000CJV2  200501           AMS  2004679ESTIMATE ACTIVE            004210000 55550679       IDR  000000000144640000       0                 2                  
961050    2004200501AMS04/20_A  E 000000000300000000CJV2  200501           AMS  2004679ESTIMATE ACTIVE            004210000 55550679       IDR  000000000300000000       0                 2                  
961050    2004200501AMS04/20_A  E 000000012200000000CJV2  200501           AMS  2004679ESTIMATE ACTIVE            004210000 55550679       IDR  000000012200000000       0                 2                  
961050    2004200501AMS04/20_A  E 000000002401140000CJV2  200501           AMS  2004679ESTIMATE ACTIVE            004210000 55550679       IDR  000000002401140000       0                 2                  
961050    2004200501AMS04/20_A  E 000000005289500000CJV2  200501           AMS  2004679ESTIMATE ACTIVE            004210000 55550679       IDR  000000005289500000       0                 2                  
961050    2004200501AMS04/20_A  E 000000005049459000CJV2  200501           AMS  2004679ESTIMATE ACTIVE            004210000 55550679       IDR  000000005049459000       0                 2                  
961050    2004200501AMS04/20_A  E 000000002148040000CJV2  200501           AMS  2004679ESTIMATE ACTIVE            004210000 55550679       IDR  000000002148040000       0                 2                  
961050    2004200501AMS04/20_A  E 000000001468100000CJV2  200501           AMS  2004679ESTIMATE ACTIVE            004210000 55550679       IDR  000000001468100000       0                 2                  
961050    2004200501AMS04/20_A  E 000000001542460000CJV2  200501           AMS  2004679ESTIMATE ACTIVE            004210000 55550679       IDR  000000001542460000       0                 2                  
961050    2004200501AMS04/20_A  E 000000009264380000CJV2  200501           AMS  2004679ESTIMATE ACTIVE            004210000 55550679       IDR  000000009264380000       0                 2                  
961050    2004200501AMS04/20_A  E 000000009264380000CJV2  200501           AMS  2004679ESTIMATE ACTIVE            004210000 55550679       IDR  000000009264380000       0                 2                  
961050    2004200501AMS04/20_A  E 000000001542460000CJV2  200501           AMS  2004679ESTIMATE ACTIVE            004210000 55550679       IDR  000000001542460000       0                 2                  
961050    2004200501AMS04/20_A  E 000000009264380000CJV2  200501           AMS  2004679ESTIMATE ACTIVE            004210000 55550679       IDR  000000009264380000       0                 2                  
961050    2004200501AMS04/20_A  E 000000001542460000CJV2  200501           AMS  2004679ESTIMATE ACTIVE            004210000 55550679       IDR  000000001542460000       0                 2                  
961050    2004200501AMS04/20_A  E 000000001542460000CJV2  200501           AMS  2004679ESTIMATE ACTIVE            004210000 55550679       IDR  000000001542460000       0                 2                  
961050    2004200501AMS04/20_A  E 000000002206220000CJV2  200501           AMS  2004679ESTIMATE ACTIVE            004210000 55550679       IDR  000000002206220000       0                 2                  
961050    2004200501AMS04/20_A  E 000000002703680000CJV2  200501           AMS  2004679ESTIMATE ACTIVE            004210000 55550679       IDR  000000002703680000       0                 2                  
961050    2004200501AMS04/20_A  E 000000002703680000CJV2  200501           AMS  2004679ESTIMATE ACTIVE            004210000 55550679       IDR  000000002703680000       0                 2                  
961050    2004200501AMS04/20_A  E 000000002703680000CJV2  200501           AMS  2004679ESTIMATE ACTIVE            004210000 55550679       IDR  000000002703680000       0                 2                  
961050    2004200501AMS04/20_A  E 000000001652580000CJV2  200501           AMS  2004679ESTIMATE ACTIVE            004210000 55550679       IDR  000000001652580000       0                 2                  
961050    2004200501AMS04/20_A  E 000000001341080000CJV2  200501           AMS  2004679ESTIMATE ACTIVE            004210000 55550679       IDR  000000001341080000       0                 2                  
961050    2004200501AMS04/20_A  E 000000002157540000CJV2  200501           AMS  2004679ESTIMATE ACTIVE            004210000 55550679       IDR  000000002157540000       0                 2                  
961050    2004200501AMS04/20_A  E 000000000231020000CJV2  200501           AMS  2004679ESTIMATE ACTIVE            004210000 55550679       IDR  000000000231020000       0                 2                  
961050    2004200501AMS04/20_A  E 000000000159260000CJV2  200501           AMS  2004679ESTIMATE ACTIVE            004210000 55550679       IDR  000000000159260000       0                 2                  
961050    2004200501AMS04/20_A  E 000000000102000000CJV2  200501           AMS  2004679ESTIMATE ACTIVE            004210000 55550679       IDR  000000000102000000       0                 2                  
961050    2004200501AMS04/20_A  E 000000000166960000CJV2  200501           AMS  2004679ESTIMATE ACTIVE            004210000 55550679       IDR  000000000166960000       0                 2                  
961050    2004200501AMS04/20_A  E 000000000135680000CJV2  200501           AMS  2004679ESTIMATE ACTIVE            004210000 55550679       IDR  000000000135680000       0                 2                  
961050    2004200501AMS04/20_A  E 000000000122260000CJV2  200501           AMS  2004679ESTIMATE ACTIVE            004210000 55550679       IDR  000000000122260000       0                 2                  
961050    2004200501AMS04/20_A  E 000000000137280000CJV2  200501           AMS  2004679ESTIMATE ACTIVE            004210000 55550679       IDR  000000000137280000       0                 2                  
961050    2004200501AMS04/20_A  E 000000000206920000CJV2  200501           AMS  2004679ESTIMATE ACTIVE            004210000 55550679       IDR  000000000206920000       0                 2                  
961050    2004200501AMS04/20_A  E 000000000135680000CJV2  200501           AMS  2004679ESTIMATE ACTIVE            004210000 55550679       IDR  000000000135680000       0                 2                  
961050    2004200501AMS04/20_A  E 000000000162080000CJV2  200501           AMS  2004679ESTIMATE ACTIVE            004210000 55550679       IDR  000000000162080000       0                 2                  
961050    2004200501AMS04/20_A  E 000000000040520000CJV2  200501           AMS  2004679ESTIMATE ACTIVE            004210000 55550679       IDR  000000000040520000       0                 2                  
961050    2004200501AMS04/20_A  E 000000000001250000CJV2  200501           AMS  2004679ESTIMATE ACTIVE            004210000 55550679       IDR  000000000001250000       0                 2                  
961050    2004200501AMS04/20_A  E 000000000210000000CJV2  200501           AMS  2004679ESTIMATE ACTIVE            004210000 55550679       IDR  000000000210000000       0                 2                  
961050    2004200501AMS04/20_A  E 000000000489150000CJV2  200501           AMS  2004679ESTIMATE ACTIVE            004210000 55550679       IDR  000000000489150000       0                 2                  
961050    2004200501AMS04/20_A  E 000000000013350000CJV2  200501           AMS  2004679ESTIMATE ACTIVE            004210000 55550679       IDR  000000000013350000       0                 2                  
961050    2004200501AMS04/20_A  E 000000000013350000CJV2  200501           AMS  2004679ESTIMATE ACTIVE            004210000 55550679       IDR  000000000013350000       0                 2                  
961050    2004200501AMS04/20_A  E 000000000003219000CJV2  200501           AMS  2004679ESTIMATE ACTIVE            004210000 55550679       IDR  000000000003219000       0                 2                  
961050    2004200501AMS04/20_A  E 000000000489150000CJV2  200501           AMS  2004679ESTIMATE ACTIVE            004210000 55550679       IDR  000000000489150000       0                 2                  
961050    2004200501AMS04/20_A  E 000000000222750000CJV2  200501           AMS  2004679ESTIMATE ACTIVE            004210000 55550679       IDR  000000000222750000       0                 2                  
961050    2004200501AMS04/20_A  E 000000041013000000CJV2  200501           AMS  2004679ESTIMATE ACTIVE            004210000 55550679       IDR  000000041013000000       0                 2                  
961050    2004200501AMS04/20_A  E 000000002065920000CJV2  200501           AMS  2004679ESTIMATE ACTIVE            004210000 55550679       IDR  000000002065920000       0                 2                  
961050    2004200501AMS04/20_A  E 000000000105000000CJV2  200501           AMS  2004679ESTIMATE ACTIVE            004210000 55550679       IDR  000000000105000000       0                 2                  
961050    2004200501AMS04/20_A  E 000000000100000000CJV2  200501           AMS  2004679ESTIMATE ACTIVE            004210000 55550679       IDR  000000000100000000       0                 2                  
961050    2004200501AMS04/20_A  E 000000000100000000CJV2  200501           AMS  2004679ESTIMATE ACTIVE            004210000 55550679       IDR  000000000100000000       0                 2                  
961050    2004200501AMS04/20_A  E 000000002093840000CJV2  200501           AMS  2004679ESTIMATE ACTIVE            004210000 55550679       IDR  000000002093840000       0                 2                  
961050    2004200501AMS04/20_A  E 000000000284150000CJV2  200501           AMS  2004679ESTIMATE ACTIVE            004210000 55550679       IDR  000000000284150000       0                 2                  
961050    2004200501AMS04/20_A  E 000000000007750000CJV2  200501           AMS  2004679ESTIMATE ACTIVE            004210000 55550679       IDR  000000000007750000       0                 2                  
961050    2004200501AMS04/20_A  E 000000000329700000CJV2  200501           AMS  2004679ESTIMATE ACTIVE            004210000 55550679       IDR  000000000329700000       0                 2                  
961050    2004200501AMS04/20_A  E 000000000075000000CJV2  200501           AMS  2004679ESTIMATE ACTIVE            004210000 55550679       IDR  000000000075000000       0                 2                  
961050    2004200501AMS04/20_A  E 000000001770000000CJV2  200501           AMS  2004679ESTIMATE ACTIVE            004210000 55550679       IDR  000000001770000000       0                 2                  
961050    2004200501AMS04/20_A  E 000000000121780000CJV2  200501           AMS  2004679ESTIMATE ACTIVE            004210000 55550679       IDR  000000000121780000       0                 2                  
961050    2004200501AMS04/20_A  E 000000000121780000CJV2  200501           AMS  2004679ESTIMATE ACTIVE            004210000 55550679       IDR  000000000121780000       0                 2                  
961050    2004200501AMS04/20_A  E 000000000121780000CJV2  200501           AMS  2004679ESTIMATE ACTIVE            004210000 55550679       IDR  000000000121780000       0                 2                  
961050    2004200501AMS04/20_A  E 000000000412860000CJV2  200501           AMS  2004679ESTIMATE ACTIVE            004210000 55550679       IDR  000000000412860000       0                 2                  
961050    2004200501AMS04/20_A  E 000000001350000000CJV2  200501           AMS  2004679ESTIMATE ACTIVE            004210000 55550679       IDR  000000001350000000       0                 2                  
961050    2004200501AMS04/20_A  E 000000000100000000CJV2  200501           AMS  2004679ESTIMATE ACTIVE            004210000 55550679       IDR  000000000100000000       0                 2                  
961050    2004200501AMS04/20_A  E 000000000163400000CJV2  200501           AMS  2004679ESTIMATE ACTIVE            004210000 55550679       IDR  000000000163400000       0                 2                  
961050    2004200501AMS04/20_A  E 000000000002415000CJV2  200501           AMS  2004679ESTIMATE ACTIVE            004210000 55550679       IDR  000000000002415000       0                 2                  
961050    2004200501AMS04/20_A  E 000000000387600000CJV2  200501           AMS  2004679ESTIMATE ACTIVE            004210000 55550679       IDR  000000000387600000       0                 2                  
961050    2004200501AMS04/20_A  E 000000003856250000CJV2  200501           AMS  2004679ESTIMATE ACTIVE            004210000 55550679       IDR  000000003856250000       0                 2                  
961050    2004200501AMS04/20_A  E 000000000240000000CJV2  200501           AMS  2004679ESTIMATE ACTIVE            004210000 55550679       IDR  000000000240000000       0                 2                  
961050    2004200501AMS04/20_A  E 000000000002500000CJV2  200501           AMS  2004679ESTIMATE ACTIVE            004210000 55550679       IDR  000000000002500000       0                 2                  
961050    2004200501AMS04/20_A  E 000000000292200000CJV2  200501           AMS  2004679ESTIMATE ACTIVE            004210000 55550679       IDR  000000000292200000       0                 2                  
961050    2004200501AMS04/20_A  E 000000000001250000CJV2  200501           AMS  2004679ESTIMATE ACTIVE            004210000 55550679       IDR  000000000001250000       0                 2                  
961050    2004200501AMS04/20_A  E 000000000366300000CJV2  200501           AMS  2004679ESTIMATE ACTIVE            004210000 55550679       IDR  000000000366300000       0                 2                  
961050    2004200501AMS04/20_A  E 000000000002238000CJV2  200501           AMS  2004679ESTIMATE ACTIVE            004210000 55550679       IDR  000000000002238000       0                 2                  
961050    2004200501AMS04/20_A  E 000000000105000000CJV2  200501           AMS  2004679ESTIMATE ACTIVE            004210000 55550679       IDR  000000000105000000       0                 2                  
961050    2004200501AMS04/20_A  E 000000000105000000CJV2  200501           AMS  2004679ESTIMATE ACTIVE            004210000 55550679       IDR  000000000105000000       0                 2                  
961050    2004200501AMS04/20_A  E 000000000001875000CJV2  200501           AMS  2004679ESTIMATE ACTIVE            004210000 55550679       IDR  000000000001875000       0                 2                  
961050    2004200501AMS04/20_A  E 000000000001875000CJV2  200501           AMS  2004679ESTIMATE ACTIVE            004210000 55550679       IDR  000000000001875000       0                 2                  
961050    2004200501AMS04/20_A  E 000000000105000000CJV2  200501           AMS  2004679ESTIMATE ACTIVE            004210000 55550679       IDR  000000000105000000       0                 2                  
961050    2004200501AMS04/20_A  E 000000000001875000CJV2  200501           AMS  2004679ESTIMATE ACTIVE            004210000 55550679       IDR  000000000001875000       0                 2                  
961050    2004200501AMS04/20_A  E 000000000001350000CJV2  200501           AMS  2004679ESTIMATE ACTIVE            004210000 55550679       IDR  000000000001350000       0                 2                  
961050    2004200501AMS04/20_A  E 000000000102000000CJV2  200501           AMS  2004679ESTIMATE ACTIVE            004210000 55550679       IDR  000000000102000000       0                 2                  
961050    2004200501AMS04/20_A  E 000000000001250000CJV2  200501           AMS  2004679ESTIMATE ACTIVE            004210000 55550679       IDR  000000000001250000       0                 2                  
961050    2004200501AMS04/20_A  E 000000000114270000CJV2  200501           AMS  2004679ESTIMATE ACTIVE            004210000 55550679       IDR  000000000114270000       0                 2                  
961050    2004200501AMS04/20_A  E 000000000114270000CJV2  200501           AMS  2004679ESTIMATE ACTIVE            004210000 55550679       IDR  000000000114270000       0                 2                  
961050    2004200501AMS04/20_A  E 000000000114270000CJV2  200501           AMS  2004679ESTIMATE ACTIVE            004210000 55550679       IDR  000000000114270000       0                 2                  
961050    2004200501AMS04/20_A  E 000000002681040000CJV2  200501           AMS  2004679ESTIMATE ACTIVE            004210000 55550679       IDR  000000002681040000       0                 2                  
961050    2004200501AMS04/20_A  E 000000000150000000CJV2  200501           AMS  2004679ESTIMATE ACTIVE            004210000 55550679       IDR  000000000150000000       0                 2                  
961050    2004200501AMS04/20_A  E 000000000075880000CJV2  200501           AMS  2004679ESTIMATE ACTIVE            004210000 55550679       IDR  000000000075880000       0                 2                  
961050    2004200501AMS04/20_A  E 000000000833480000CJV2  200501           AMS  2004679ESTIMATE ACTIVE            004210000 55550679       IDR  000000000833480000       0                 2                  
961050    2004200501AMS04/20_A  E 000000000122380000CJV2  200501           AMS  2004679ESTIMATE ACTIVE            004210000 55550679       IDR  000000000122380000       0                 2                  
961050    2004200501AMS04/20_A  E 000000000117960000CJV2  200501           AMS  2004679ESTIMATE ACTIVE            004210000 55550679       IDR  000000000117960000       0                 2                  
961050    2004200501AMS04/20_A  E 000000000202240000CJV2  200501           AMS  2004679ESTIMATE ACTIVE            004210000 55550679       IDR  000000000202240000       0                 2                  
961050    2004200501AMS04/20_A  E 000000000150000000CJV2  200501           AMS  2004679ESTIMATE ACTIVE            004210000 55550679       IDR  000000000150000000       0                 2                  
961050    2004200501AMS04/20_A  E 000000000001250000CJV2  200501           AMS  2004679ESTIMATE ACTIVE            004210000 55550679       IDR  000000000001250000       0                 2                  
961050    2004200501AMS04/20_A  E 000000000003710000CJV2  200501           AMS  2004679ESTIMATE ACTIVE            004210000 55550679       IDR  000000000003710000       0                 2                  
961050    2004200501AMS04/20_A  E 000000000121780000CJV2  200501           AMS  2004679ESTIMATE ACTIVE            004210000 55550679       IDR  000000000121780000       0                 2                  
961050    2004200501AMS04/20_A  E 000000000088860000CJV2  200501           AMS  2004679ESTIMATE ACTIVE            004210000 55550679       IDR  000000000088860000       0                 2                  
961050    2004200501AMS04/20_A  E 000000000121780000CJV2  200501           AMS  2004679ESTIMATE ACTIVE            004210000 55550679       IDR  000000000121780000       0                 2                  
961050    2004200501AMS04/20_A  E 000000000004826000CJV2  200501           AMS  2004679ESTIMATE ACTIVE            004210000 55550679       IDR  000000000004826000       0                 2                  
961050    2004200501AMS04/20_A  E 000000000214170000CJV2  200501           AMS  2004679ESTIMATE ACTIVE            004210000 55550679       IDR  000000000214170000       0                 2                  
961050    2004200501AMS04/20_A  E 000000001500000000CJV2  200501           AMS  2004679ESTIMATE ACTIVE            004210000 55550679       IDR  000000001500000000       0                 2                  
961050    2004200501AMS04/20_A  E 000000000150000000CJV2  200501           AMS  2004679ESTIMATE ACTIVE            004210000 55550679       IDR  000000000150000000       0                 2                  
961050    2004200501AMS04/20_A  E 000000000150000000CJV2  200501           AMS  2004679ESTIMATE ACTIVE            004210000 55550679       IDR  000000000150000000       0                 2                  
961050    2004200501AMS04/20_A  E 000000000104250000CJV2  200501           AMS  2004679ESTIMATE ACTIVE            004210000 55550679       IDR  000000000104250000       0                 2                  
961050    2004200501AMS04/20_A  E 000000000001250000CJV2  200501           AMS  2004679ESTIMATE ACTIVE            004210000 55550679       IDR  000000000001250000       0                 2                  
961050    2004200501AMS04/20_A  E 000000000001875000CJV2  200501           AMS  2004679ESTIMATE ACTIVE            004210000 55550679       IDR  000000000001875000       0                 2                  
961050    2004200501AMS04/20_A  E 000000000022960000CJV2  200501           AMS  2004679ESTIMATE ACTIVE            004210000 55550679       IDR  000000000022960000       0                 2                  
961050    2004200501AMS04/20_A  E 000000000135400000CJV2  200501           AMS  2004679ESTIMATE ACTIVE            004210000 55550679       IDR  000000000135400000       0                 2                  
961050    2004200501AMS04/20_A  E 000000000300000000CJV2  200501           AMS  2004679ESTIMATE ACTIVE            004210000 55550679       IDR  000000000300000000       0                 2                  
961050    2004200501AMS04/20_A  E 000000000500000000CJV2  200501           AMS  2004679ESTIMATE ACTIVE            004210000 55550679       IDR  000000000500000000       0                 2                  
961050    2004200501AMS04/20_A  E 000000000151120000CJV2  200501           AMS  2004679ESTIMATE ACTIVE            004210000 55550679       IDR  000000000151120000       0                 2                  
961050    2004200501AMS04/20_A  E 000000000128900000CJV2  200501           AMS  2004679ESTIMATE ACTIVE            004210000 55550679       IDR  000000000128900000       0                 2                  
961050    2004200501AMS04/20_A  E 000000000116140000CJV2  200501           AMS  2004679ESTIMATE ACTIVE            004210000 55550679       IDR  000000000116140000       0                 2                  
961050    2004200501AMS04/20_A  E 000000000135680000CJV2  200501           AMS  2004679ESTIMATE ACTIVE            004210000 55550679       IDR  000000000135680000       0                 2                  
961050    2004200501AMS04/20_A  E 000000000137280000CJV2  200501           AMS  2004679ESTIMATE ACTIVE            004210000 55550679       IDR  000000000137280000       0                 2                  
961050    2004200501AMS04/20_A  E 000000000154100000CJV2  200501           AMS  2004679ESTIMATE ACTIVE            004210000 55550679       IDR  000000000154100000       0                 2                  
961050    2004200501AMS04/20_A  E 000000000135680000CJV2  200501           AMS  2004679ESTIMATE ACTIVE            004210000 55550679       IDR  000000000135680000       0                 2                  
961050    2004200501AMS04/20_A  E 000000000225220000CJV2  200501           AMS  2004679ESTIMATE ACTIVE            004210000 55550679       IDR  000000000225220000       0                 2                  
961050    2004200501AMS04/20_A  E 000000000132715000CJV2  200501           AMS  2004679ESTIMATE ACTIVE            004210000 55550679       IDR  000000000132715000       0                 2                  
961050    2004200501AMS04/20_A  E 000000000122260000CJV2  200501           AMS  2004679ESTIMATE ACTIVE            004210000 55550679       IDR  000000000122260000       0                 2                  
961050    2004200501AMS04/20_A  E 000000000135680000CJV2  200501           AMS  2004679ESTIMATE ACTIVE            004210000 55550679       IDR  000000000135680000       0                 2                  
961050    2004200501AMS04/20_A  E 000000002676150000CJV2  200501           AMS  2004679ESTIMATE ACTIVE            004210000 55550679       IDR  000000002676150000       0                 2                  
961050    2004200501AMS04/20_A  E 000000000532840000CJV2  200501           AMS  2004679ESTIMATE ACTIVE            004210000 55550679       IDR  000000000532840000       0                 2                  
961050    2004200501AMS04/20_A  E 000000000250000000CJV2  200501           AMS  2004679ESTIMATE ACTIVE            004210000 55550679       IDR  000000000250000000       0                 2                  
961050    2004200501AMS04/20_A  E 000000001067100000CJV2  200501           AMS  2004679ESTIMATE ACTIVE            004210000 55550679       IDR  000000001067100000       0                 2                  
961050    2004200501AMS04/20_A  E 000000000433410000CJV2  200501           AMS  2004679ESTIMATE ACTIVE            004210000 55550679       IDR  000000000433410000       0                 2                  
961050    2004200501AMS04/20_A  E 000000000077620000CJV2  200501           AMS  2004679ESTIMATE ACTIVE            004210000 55550679       IDR  000000000077620000       0                 2                  
961050    2004200501AMS04/20_A  E 000000000139220000CJV2  200501           AMS  2004679ESTIMATE ACTIVE            004210000 55550679       IDR  000000000139220000       0                 2                  
961050    2004200501AMS04/20_A  E 000000000135680000CJV2  200501           AMS  2004679ESTIMATE ACTIVE            004210000 55550679       IDR  000000000135680000       0                 2                  
961050    2004200501AMS04/20_A  E 000000011176000000CJV2  200501           AMS  2004679ESTIMATE ACTIVE            004210000 55550679       IDR  000000011176000000       0                 2                  
961050    2004200501AMS04/20_A  E 000000000072940000CJV2  200501           AMS  2004679ESTIMATE ACTIVE            004210000 55550679       IDR  000000000072940000       0                 2                  
961050    2004200501AMS04/20_A  E 000000000188940000CJV2  200501           AMS  2004679ESTIMATE ACTIVE            004210000 55550679       IDR  000000000188940000       0                 2                  
961050    2004200501AMS04/20_A  E 000000000170400000CJV2  200501           AMS  2004679ESTIMATE ACTIVE            004210000 55550679       IDR  000000000170400000       0                 2                  
961050    2004200501AMS04/20_A  E 000000000072940000CJV2  200501           AMS  2004679ESTIMATE ACTIVE            004210000 55550679       IDR  000000000072940000       0                 2                  
961050    2004200501AMS04/20_A  E 000000000119700000CJV2  200501           AMS  2004679ESTIMATE ACTIVE            004210000 55550679       IDR  000000000119700000       0                 2                  
961050    2004200501AMS04/20_A  E 000000000397740000CJV2  200501           AMS  2004679ESTIMATE ACTIVE            004210000 55550679       IDR  000000000397740000       0                 2                  
961050    2004200501AMS04/20_A  E 000000000119700000CJV2  200501           AMS  2004679ESTIMATE ACTIVE            004210000 55550679       IDR  000000000119700000       0                 2                  
961050    2004200501AMS04/20_A  E 000000000119700000CJV2  200501           AMS  2004679ESTIMATE ACTIVE            004210000 55550679       IDR  000000000119700000       0                 2                  
961050    2004200501AMS04/20_A  E 000000000119700000CJV2  200501           AMS  2004679ESTIMATE ACTIVE            004210000 55550679       IDR  000000000119700000       0                 2                  
961050    2004200501AMS04/20_A  E 000000000404900000CJV2  200501           AMS  2004679ESTIMATE ACTIVE            004210000 55550679       IDR  000000000404900000       0                 2                  
961050    2004200501AMS04/20_A  E 000000000146860000CJV2  200501           AMS  2004679ESTIMATE ACTIVE            004210000 55550679       IDR  000000000146860000       0                 2                  
961050    2004200501AMS04/20_A  E 000000000240900000CJV2  200501           AMS  2004679ESTIMATE ACTIVE            004210000 55550679       IDR  000000000240900000       0                 2                  
961050    2004200501AMS04/20_A  E 000000000268860000CJV2  200501           AMS  2004679ESTIMATE ACTIVE            004210000 55550679       IDR  000000000268860000       0                 2                  
961050    2004200501AMS04/20_A  E 000000000289525000CJV2  200501           AMS  2004679ESTIMATE ACTIVE            004210000 55550679       IDR  000000000289525000       0                 2                  
961050    2004200501AMS04/20_A  E 000000000150000000CJV2  200501           AMS  2004679ESTIMATE ACTIVE            004210000 55550679       IDR  000000000150000000       0                 2                  
961050    2004200501AMS04/20_A  E 000000000150000000CJV2  200501           AMS  2004679ESTIMATE ACTIVE            004210000 55550679       IDR  000000000150000000       0                 2                  
961050    2004200501AMS04/20_A  E 000000001056630000CJV2  200501           AMS  2004679ESTIMATE ACTIVE            004210000 55550679       IDR  000000001056630000       0                 2                  
961050    2004200501AMS04/20_A  E 000000000012500000CJV2  200501           AMS  2004679ESTIMATE ACTIVE            004210000 55550679       IDR  000000000012500000       0                 2                  
961050    2004200501AMS04/20_A  E 000000000080640000CJV2  200501           AMS  2004679ESTIMATE ACTIVE            004210000 55550679       IDR  000000000080640000       0                 2                  
961050    2004200501AMS04/20_A  E 000000000004620000CJV2  200501           AMS  2004679ESTIMATE ACTIVE            004210000 55550679       IDR  000000000004620000       0                 2                  
961050    2004200501AMS04/20_A  E 000000000268120000CJV2  200501           AMS  2004679ESTIMATE ACTIVE            004210000 55550679       IDR  000000000268120000       0                 2                  
961050    2004200501AMS04/20_A  E 000000000214820000CJV2  200501           AMS  2004679ESTIMATE ACTIVE            004210000 55550679       IDR  000000000214820000       0                 2                  
961050    2004200501AMS04/20_A  E 000000000472500000CJV2  200501           AMS  2004679ESTIMATE ACTIVE            004210000 55550679       IDR  000000000472500000       0                 2                  
961050    2004200501AMS04/20_A  E 000000000930980000CJV2  200501           AMS  2004679ESTIMATE ACTIVE            004210000 55550679       IDR  000000000930980000       0                 2                  
961050    2004200501AMS04/20_A  E 000000001785160000CJV2  200501           AMS  2004679ESTIMATE ACTIVE            004210000 55550679       IDR  000000001785160000       0                 2                  
961050    2004200501AMS04/20_A  E 000000000443533500CJV2  200501           AMS  2004679ESTIMATE ACTIVE            004210000 55550679       IDR  000000000443533500       0                 2                  
961050    2004200501AMS04/20_A  E 000000000389915000CJV2  200501           AMS  2004679ESTIMATE ACTIVE            004210000 55550679       IDR  000000000389915000       0                 2                  
961050    2004200501AMS04/20_A  E 000000000237588000CJV2  200501           AMS  2004679ESTIMATE ACTIVE            004210000 55550679       IDR  000000000237588000       0                 2                  
961050    2004200501AMS04/20_A  E 000000000155780000CJV2  200501           AMS  2004679ESTIMATE ACTIVE            004210000 55550679       IDR  000000000155780000       0                 2                  
961050    2004200501AMS04/20_A  E 000000000122380000CJV2  200501           AMS  2004679ESTIMATE ACTIVE            004210000 55550679       IDR  000000000122380000       0                 2                  
961050    2004200501AMS04/20_A  E 000000000117960000CJV2  200501           AMS  2004679ESTIMATE ACTIVE            004210000 55550679       IDR  000000000117960000       0                 2                  
961050    2004200501AMS04/20_A  E 000000000202240000CJV2  200501           AMS  2004679ESTIMATE ACTIVE            004210000 55550679       IDR  000000000202240000       0                 2                  
961050    2004200501AMS04/20_A  E 000000000155780000CJV2  200501           AMS  2004679ESTIMATE ACTIVE            004210000 55550679       IDR  000000000155780000       0                 2                  
961050    2004200501AMS04/20_A  E 000000000122380000CJV2  200501           AMS  2004679ESTIMATE ACTIVE            004210000 55550679       IDR  000000000122380000       0                 2                  
961050    2004200501AMS04/20_A  E 000000000117960000CJV2  200501           AMS  2004679ESTIMATE ACTIVE            004210000 55550679       IDR  000000000117960000       0                 2                  
961050    2004200501AMS04/20_A  E 000000000349335000CJV2  200501           AMS  2004679ESTIMATE ACTIVE            004210000 55550679       IDR  000000000349335000       0                 2                  
961050    2004200501AMS04/20_A  E 000000001061720000CJV2  200501           AMS  2004679ESTIMATE ACTIVE            004210000 55550679       IDR  000000001061720000       0                 2                  
961050    2004200501AMS04/20_A  E 000000000312220000CJV2  200501           AMS  2004679ESTIMATE ACTIVE            004210000 55550679       IDR  000000000312220000       0                 2                  
961050    2004200501AMS04/20_A  E 000000000219320000CJV2  200501           AMS  2004679ESTIMATE ACTIVE            004210000 55550679       IDR  000000000219320000       0                 2                  
961050    2004200501AMS04/20_A  E 000000000007845000CJV2  200501           AMS  2004679ESTIMATE ACTIVE            004210000 55550679       IDR  000000000007845000       0                 2                  
961050    2004200501AMS04/20_A  E 000000000194580000CJV2  200501           AMS  2004679ESTIMATE ACTIVE            004210000 55550679       IDR  000000000194580000       0                 2                  
961050    2004200501AMS04/20_A  E 000000000139460000CJV2  200501           AMS  2004679ESTIMATE ACTIVE            004210000 55550679       IDR  000000000139460000       0                 2                  
961050    2004200501AMS04/20_A  E 000000000139460000CJV2  200501           AMS  2004679ESTIMATE ACTIVE            004210000 55550679       IDR  000000000139460000       0                 2                  
961050    2004200501AMS04/20_A  E 000000000199560000CJV2  200501           AMS  2004679ESTIMATE ACTIVE            004210000 55550679       IDR  000000000199560000       0                 2                  
961050    2004200501AMS04/20_A  E 000000000180000000CJV2  200501           AMS  2004679ESTIMATE ACTIVE            004210000 55550679       IDR  000000000180000000       0                 2                  
961050    2004200501AMS04/20_A  E 000000001000000000CJV2  200501           AMS  2004679ESTIMATE ACTIVE            004210000 55550679       IDR  000000001000000000       0                 2                  
961050    2004200501AMS04/20_A  E 000000000212340000CJV2  200501           AMS  2004679ESTIMATE ACTIVE            004210000 55550679       IDR  000000000212340000       0                 2                  
961050    2004200501AMS04/20_A  E 000000000005000000CJV2  200501           AMS  2004679ESTIMATE ACTIVE            004210000 55550679       IDR  000000000005000000       0                 2                  
961050    2004200501AMS04/20_A  E 000000000219885000CJV2  200501           AMS  2004679ESTIMATE ACTIVE            004210000 55550679       IDR  000000000219885000       0                 2                  
961050    2004200501AMS04/20_A  E 000000000002780000CJV2  200501           AMS  2004679ESTIMATE ACTIVE            004210000 55550679       IDR  000000000002780000       0                 2                  
961050    2004200501AMS04/20_A  E 000000000225260000CJV2  200501           AMS  2004679ESTIMATE ACTIVE            004210000 55550679       IDR  000000000225260000       0                 2                  
961050    2004200501AMS04/20_A  E 000000000274180000CJV2  200501           AMS  2004679ESTIMATE ACTIVE            004210000 55550679       IDR  000000000274180000       0                 2                  
961050    2004200501AMS04/20_A  E 000000000304950000CJV2  200501           AMS  2004679ESTIMATE ACTIVE            004210000 55550679       IDR  000000000304950000       0                 2                  
961050    2004200501AMS04/20_A  E 000000000044880000CJV2  200501           AMS  2004679ESTIMATE ACTIVE            004210000 55550679       IDR  000000000044880000       0                 2                  
961050    2004200501AMS04/20_A  E 000000000454700000CJV2  200501           AMS  2004679ESTIMATE ACTIVE            004210000 55550679       IDR  000000000454700000       0                 2                  
961050    2004200501AMS04/20_A  E 000000000225260000CJV2  200501           AMS  2004679ESTIMATE ACTIVE            004210000 55550679       IDR  000000000225260000       0                 2                  
961050    2004200501AMS04/20_A  E 000000000258780000CJV2  200501           AMS  2004679ESTIMATE ACTIVE            004210000 55550679       IDR  000000000258780000       0                 2                  
961050    2004200501AMS04/20_A  E 000000000003885000CJV2  200501           AMS  2004679ESTIMATE ACTIVE            004210000 55550679       IDR  000000000003885000       0                 2                  
961050    2004200501AMS04/20_A  E 000000000139220000CJV2  200501           AMS  2004679ESTIMATE ACTIVE            004210000 55550679       IDR  000000000139220000       0                 2                  
961050    2004200501AMS04/20_A  E 000000000177420000CJV2  200501           AMS  2004679ESTIMATE ACTIVE            004210000 55550679       IDR  000000000177420000       0                 2                  
961050    2004200501AMS04/20_A  E 000000000300000000CJV2  200501           AMS  2004679ESTIMATE ACTIVE            004210000 55550679       IDR  000000000300000000       0                 2                  
961050    2004200501AMS04/20_A  E 000000000001830000CJV2  200501           AMS  2004679ESTIMATE ACTIVE            004210000 55550679       IDR  000000000001830000       0                 2                  
961050    2004200501AMS04/20_A  E 000000000106080000CJV2  200501           AMS  2004679ESTIMATE ACTIVE            004210000 55550679       IDR  000000000106080000       0                 2                  
961050    2004200501AMS04/20_A  E 000000000102000000CJV2  200501           AMS  2004679ESTIMATE ACTIVE            004210000 55550679       IDR  000000000102000000       0                 2                  
961050    2004200501AMS04/20_A  E 000000000180000000CJV2  200501           AMS  2004679ESTIMATE ACTIVE            004210000 55550679       IDR  000000000180000000       0                 2                  
961050    2004200501AMS04/20_A  E 000000000180000000CJV2  200501           AMS  2004679ESTIMATE ACTIVE            004210000 55550679       IDR  000000000180000000       0                 2                  
961050    2004200501AMS04/20_A  E 000000000191820000CJV2  200501           AMS  2004679ESTIMATE ACTIVE            004210000 55550679       IDR  000000000191820000       0                 2                  
961050    2004200501AMS04/20_A  E 000000000183360000CJV2  200501           AMS  2004679ESTIMATE ACTIVE            004210000 55550679       IDR  000000000183360000       0                 2                  
961050    2004200501AMS04/20_A  E 000000000450000000CJV2  200501           AMS  2004679ESTIMATE ACTIVE            004210000 55550679       IDR  000000000450000000       0                 2                  
961050    2004200501AMS04/20_A  E 000000000102000000CJV2  200501           AMS  2004679ESTIMATE ACTIVE            004210000 55550679       IDR  000000000102000000       0                 2                  
961050    2004200501AMS04/20_A  E 000000000135680000CJV2  200501           AMS  2004679ESTIMATE ACTIVE            004210000 55550679       IDR  000000000135680000       0                 2                  
961050    2004200501AMS04/20_A  E 000000000159080000CJV2  200501           AMS  2004679ESTIMATE ACTIVE            004210000 55550679       IDR  000000000159080000       0                 2                  
961050    2004200501AMS04/20_A  E 000000000239130000CJV2  200501           AMS  2004679ESTIMATE ACTIVE            004210000 55550679       IDR  000000000239130000       0                 2                  
961050    2004200501AMS04/20_A  E 000000000002013000CJV2  200501           AMS  2004679ESTIMATE ACTIVE            004210000 55550679       IDR  000000000002013000       0                 2                  
961050    2004200501AMS04/20_A  E 000000000269370000CJV2  200501           AMS  2004679ESTIMATE ACTIVE            004210000 55550679       IDR  000000000269370000       0                 2                  
961050    2004200501AMS04/20_A  E 000000000124260000CJV2  200501           AMS  2004679ESTIMATE ACTIVE            004210000 55550679       IDR  000000000124260000       0                 2                  
961050    2004200501AMS04/20_A  E 000000000003575000CJV2  200501           AMS  2004679ESTIMATE ACTIVE            004210000 55550679       IDR  000000000003575000       0                 2                  
961050    2004200501AMS04/20_A  E 000000000619350000CJV2  200501           AMS  2004679ESTIMATE ACTIVE            004210000 55550679       IDR  000000000619350000       0                 2                  
961050    2004200501AMS04/20_A  E 000000000001580000CJV2  200501           AMS  2004679ESTIMATE ACTIVE            004210000 55550679       IDR  000000000001580000       0                 2                  
961050    2004200501AMS04/20_A  E 000000000258180000CJV2  200501           AMS  2004679ESTIMATE ACTIVE            004210000 55550679       IDR  000000000258180000       0                 2                  
961050    2004200501AMS04/20_A  E 000000000202240000CJV2  200501           AMS  2004679ESTIMATE ACTIVE            004210000 55550679       IDR  000000000202240000       0                 2                  
961050    2004200501AMS04/20_A  E 000000000155780000CJV2  200501           AMS  2004679ESTIMATE ACTIVE            004210000 55550679       IDR  000000000155780000       0                 2                  
961050    2004200501AMS04/20_A  E 000000000122380000CJV2  200501           AMS  2004679ESTIMATE ACTIVE            004210000 55550679       IDR  000000000122380000       0                 2                  
961050    2004200501AMS04/20_A  E 000000000117960000CJV2  200501           AMS  2004679ESTIMATE ACTIVE            004210000 55550679       IDR  000000000117960000       0                 2                  
961050    2004200501AMS04/20_A  E 000000000202240000CJV2  200501           AMS  2004679ESTIMATE ACTIVE            004210000 55550679       IDR  000000000202240000       0                 2                  
961050    2004200501AMS04/20_A  E 000000000155780000CJV2  200501           AMS  2004679ESTIMATE ACTIVE            004210000 55550679       IDR  000000000155780000       0                 2                  
961050    2004200501AMS04/20_A  E 000000001246660000CJV2  200501           AMS  2004679ESTIMATE ACTIVE            004210000 55550679       IDR  000000001246660000       0                 2                  
961050    2004200501AMS04/20_A  E 000000001287900000CJV2  200501           AMS  2004679ESTIMATE ACTIVE            004210000 55550679       IDR  000000001287900000       0                 2                  
961050    2004200501AMS04/20_A  E 000000001291400000CJV2  200501           AMS  2004679ESTIMATE ACTIVE            004210000 55550679       IDR  000000001291400000       0                 2                  
961050    2004200501AMS04/20_A  E 000000001250000000CJV2  200501           AMS  2004679ESTIMATE ACTIVE            004210000 55550679       IDR  000000001250000000       0                 2                  
961050    2004200501AMS04/20_A  E 000000001250000000CJV2  200501           AMS  2004679ESTIMATE ACTIVE            004210000 55550679       IDR  000000001250000000       0                 2                  
961050    2004200501AMS04/20_A  E 000000005202000000CJV2  200501           AMS  2004679ESTIMATE ACTIVE            004210000 55550679       IDR  000000005202000000       0                 2                  
961050    2004200501AMS04/20_A  E 000000004450040000CJV2  200501           AMS  2004679ESTIMATE ACTIVE            004210000 55550679       IDR  000000004450040000       0                 2                  
961050    2004200501AMS04/20_A  E 000000000086370000CJV2  200501           AMS  2004679ESTIMATE ACTIVE            004210000 55550679       IDR  000000000086370000       0                 2                  
961050    2004200501AMS04/20_A  E 000000001579080000CJV2  200501           AMS  2004679ESTIMATE ACTIVE            004210000 55550679       IDR  000000001579080000       0                 2                  
961050    2004200501AMS04/20_A  E 000000000388875000CJV2  200501           AMS  2004679ESTIMATE ACTIVE            004210000 55550679       IDR  000000000388875000       0                 2                  
961050    2004200501AMS04/20_A  E 000000002568780000CJV2  200501           AMS  2004679ESTIMATE ACTIVE            004210000 55550679       IDR  000000002568780000       0                 2                  
961050    2004200501AMS04/20_A  E 000000003933720400CJV2  200501           AMS  2004679ESTIMATE ACTIVE            004210000 55550679       IDR  000000003933720400       0                 2                  
961050    2004200501AMS04/20_A  E 000000000296985000CJV2  200501           AMS  2004679ESTIMATE ACTIVE            004210000 55550679       IDR  000000000296985000       0                 2                  
